S0220000687474703A2F2F737265636F72642E736F75726365666F7267652E6E65742F1D
S3250800600000200020696400083164000837640008000000000000000000000000000000001D
S325080060200000000000000000000000003D6400080000000000000000476400085164000839
S32508006040B964000800000000B9640008B9640008B9640008B9640008B9640008B96400082F
S3250800606000000000B9640008B9640008B9640008B9640008B9640008B96400080000000034
S32508006080B96400080000000000000000B964000800000000B9640008B9640008B964000839
S325080060A0B9640008B9640008B9640008B9640008B964000800000000002243088B4274D398
S325080060C003098B425FD3030A8B4244D3030B8B4228D3030C8B420DD3FF22090212BA030C1D
S325080060E08B4202D31212090265D0030B8B4219D300E0090AC30B8B4201D3CB03C01A524128
S32508006100830B8B4201D38B03C01A5241430B8B4201D34B03C01A5241030B8B4201D30B03E0
S32508006120C01A5241C30A8B4201D3CB02C01A5241830A8B4201D38B02C01A5241430A8B42FA
S3250800614001D34B02C01A5241030A8B4201D30B02C01A5241CDD2C3098B4201D3CB01C01AC9
S32508006160524183098B4201D38B01C01A524143098B4201D34B01C01A524103098B4201D305
S325080061800B01C01A5241C3088B4201D3CB00C01A524183088B4201D38B00C01A5241430865
S325080061A08B4201D34B00C01A5241411A00D20146524110467047FFE701B5002000F006F8BA
S325080061C002BDC0460029F7D076E770477047C0460448054B10B5834203D0044B002B00D0E8
S325080061E0984710BD10000020100000200000000006480749091A8B10C90FC91810B5491052
S3250800620003D0044B002B00D0984710BD10000020100000200000000010B5074C2378002B69
S3250800622009D1FFF7D5FF054B002B02D0044800E000BF0123237010BD1000002000000000C0
S32508006240D8750008054B10B5002B03D00449054800E000BFFFF7CCFF10BDC04600000000FB
S3250800626014000020D875000880B500AF0F4B104A9A6000F023F900F01FF800F077F88023E0
S325080062805B010C480122190000F0B6FB80231B0108480122190000F0AFFB8023DB000548B3
S325080062A00122190000F0A8FBFEE7C04600ED00E0006000080004005090B593B000AF14241E
S325080062C03B19180034231A00002101F08DF83B1D180010231A00002101F086F880239B00B1
S325080062E0180000F0A7FB3B1902221A603B1980225200DA6021007B1800221A617B1840222C
S325080063005A617B180222DA617B1802221A627B1800225A627B1808229A627B18802292029C
S32508006320DA627B18802292051A637B18180000F0C1FB031E01D000F051F83B1D07221A604D
S325080063403B1D02225A603B1D00229A603B1D0022DA603B1D0221180000F0BCFE031E01D0A2
S3250800636000F03CF8C046BD4613B090BD80B586B000AF3B1D180014231A00002101F034F8B9
S32508006380144B5A6B134B02210A435A63114B5B6B022213403B603B68E0235B010E48002292
S325080063A0190000F029FB3B1DE02252011A603B1D01225A603B1D00229A603B1D0022DA601E
S325080063C03B1D054A1900100000F0B2F9C046BD4606B080BD001002400004005080B500AFBE
S325080063E072B6C046FEE7000080B582B000AF0F4B1A6C0E4B01210A431A640C4B1B6C01223F
S3250800640013407B607B68094BDA6B084B802149050A43DA63054BDA6B80235B0513403B6072
S325080064203B68C046BD4602B080BDC0460010024080B500AFFEE780B500AFFEE780B500AFE5
S32508006440C046BD4680BD80B500AFC046BD4680BD80B500AF00F09CF8C046BD4680BD80B5DB
S3250800646000AFC046BD4680BD0D488546FFF7F7FF0C480D490D4A002302E0D458C450043390
S32508006480C4188C42F9D30A4A0A4C002301E013600432A242FBD300F0FBFFFFF7E5FEFEE7C7
S325080064A00020002000000020100000203C76000810000020C8010020FEE7000080B582B01F
S325080064C000AFFB1D00221A700B4B1A680A4B802149000A431A60032000F010F8031E03D04E
S325080064E0FB1D01221A7001E0FFF77EFFFB1D1B781800BD4602B080BD0020024090B585B0E4
S3250800650000AF78600F23FB1800221A701D4B1B78002B2BD01C4B1C681A4B1B781900FA23BB
S325080065209800FFF7C9FD030019002000FFF7C4FD0300180000F0EFF8031E12D17B68032BFF
S325080065400AD8796801235B420022180000F0CEF80E4B7A681A600DE00F23FB1801221A7025
S3250800656008E00F23FB1801221A7003E00F23FB1801221A700F23FB181B781800BD4605B0B6
S3250800658090BDC04608000020000000200400002080B500AF054B1B781A00054B1B68D21890
S325080065A0034B1A60C046BD4680BDC046080000202C00002080B500AF024B1B681800BD4676
S325080065C080BDC0462C00002090B583B000AF02003960FB1D1A70FB1D1B787F2B28D82F4AEC
S325080065E0FB1D1B785BB29B08C0339B009B58FA1D1278110003220A40D200FF2191400A00C3
S32508006600D2431A4011003B689B01FF221A40FB1D1B78180003230340DB009A401F48FB1DD2
S325080066201B785BB29B080A43C0339B001A5031E01B4AFB1D1B7819000F230B40083B9B0827
S3250800664006339B00D31804331B68FA1D1278110003220A40D200FF2191400A00D2431A4056
S3250800666011003B689B01FF221A40FB1D1B78180003230340DB009A400948FB1D1B781C0048
S325080066800F232340083B9B080A4306339B00C31804331A60C046BD4603B090BD00E100E0FA
S325080066A000ED00E080B582B000AF78607B685A1E80235B049A4201D3012310E00A4B7A68B9
S325080066C0013A5A6001235B4203211800FFF77CFF054B00229A60044B07221A6000231800B0
S325080066E0BD4602B080BDC04610E000E080B584B000AFB9607A600F217B18021C1A70BA682C
S325080067007B181B785BB211001800FFF75DFFC046BD4604B080BD80B582B000AF78607B68F2
S325080067201800FFF7BFFF03001800BD4602B080BD80B586B000AF7860396000237B6147E1C0
S325080067403B681B6801217A6991400A001340FB60FB68002B00D138E13B685B680322134021
S32508006760012B05D03B685B6803221340022B30D17B689B683B617B695B0003229A4013002B
S32508006780DA433B6913403B613B68DA687B695B009A4013003A6913433B617B683A699A6015
S325080067A07B685B683B6101227B699A401300DA433B6913403B613B685B681B0901221A40DE
S325080067C07B699A4013003A6913433B617B683A695A603B685B6803221340032B17D07B682F
S325080067E0DB683B617B695B0003229A401300DA433B6913403B613B689A687B695B009A40ED
S3250800680013003A6913433B617B683A69DA603B685B6803221340022B23D17B69DA087B685A
S3250800682008329200D3583B617B69072213409B000F229A401300DA433B6913403B613B684B
S325080068401A697B6907210B409B009A4013003A6913433B617B69DA087B680832920039691C
S32508006860D1507B681B683B617B695B0003229A401300DA433B6913403B613B685B6803225B
S325080068801A407B695B009A4013003A6913433B617B683A691A603B685A68C0239B02134097
S325080068A000D192E0504A7B699B0818339B009B583B617B6903221340DB000F229A4013009C
S325080068C0DA433B6913403B617A68A023DB059A4213D07B68454A93420DD07B68444A93424C
S325080068E007D07B68434A934201D1032306E0052304E0022302E0012300E000237A6903214F
S325080069000A40D20093403A6913433B6136497B699B0818339B003A695A50334B1B683B610F
S32508006920FB68DA433B6913403B613B685A6880235B03134003D03A69FB6813433B612A4B3D
S325080069403A691A60284B5B683B61FB68DA433B6913403B613B685A6880239B03134003D05B
S325080069603A69FB6813433B611F4B3A695A601E4A8423D3583B61FB68DA433B6913403B6161
S325080069803B685A6880239B02134003D03A69FB6813433B61144984223B698B50124A8023A5
S325080069A0D3583B61FB68DA433B6913403B613B685A6880235B02134003D03A69FB68134308
S325080069C03B61094980223B698B507B6901337B613B681A687B69DA40131E00D0B0E6C046E6
S325080069E0C046BD4606B080BD001802400004005000080050000C005080B582B000AF78603D
S32508006A0008001100BB1C021C1A807B1C0A1C1A707B1C1B78002B04D0BB1C1A887B689A61F9
S32508006A2003E0BB1C1A887B689A62C046BD4602B080BD000080B584B000AF7860194B1B683E
S32508006A40194A13401900174B7A680A431A607A6880239B009A421FD1144B1A6813005B0013
S32508006A609B185B0012491800FFF726FB03000133FB6008E0FB68002B03D0FB68013BFB609B
S32508006A8001E0032309E0074B5A698023DB001A408023DB009A42EDD000231800BD4604B002
S32508006AA080BDC04600700040FFF9FFFF0000002040420F0080B588B000AF78607B68002B2C
S32508006AC001D10123F3E27B681B680122134000D17CE0C34B9B6838221340BB61C04BDB68AC
S32508006AE0032213407B61BB69102B02D17B69032B02D0BB69082B0BD1B94B1A6880239B0225
S32508006B00134062D07B685B68002B5ED10123CEE27B685A6880235B029A4207D1B04B1A6838
S32508006B20AF4B802149020A431A6020E07B685A68A023DB029A420ED1A94B1A68A84B802190
S32508006B40C9020A431A60A64B1A68A54B802149020A431A600BE0A24B1A68A14BA1490A4005
S32508006B601A609F4B1A689E4B9F490A401A607B685B68002B14D0FFF71DFD03003B6108E040
S32508006B80FFF718FD02003B69D31A642B01D903238DE2934B1A6880239B021340F0D015E0A3
S32508006BA0FFF708FD03003B6108E0FFF703FD02003B69D31A642B01D9032378E2884B1A687E
S32508006BC080239B021340F0D100E0C0467B681B680222134000D199E0814B9B6838221340CA
S32508006BE0BB617F4BDB68032213407B61BB69102B02D17B69022B02D0BB69002B35D1784BDD
S32508006C001A688023DB00134005D07B68DB68002B01D101234BE2724B5B68744A1340190020
S32508006C207B685B691A026E4B0A435A60BB69002B12D16B4B1B686E4A134019007B681A69CE
S32508006C40674B0A431A60664B1B68DB0A07221340684ADA40684B1A60684B1B681800FFF7DB
S32508006C604DFC031E51D0012321E27B68DB68002B30D05B4B1B685E4A134019007B681A6960
S32508006C80574B0A431A60564B1A68554B802149000A431A60FFF78EFC03003B6108E0FFF70C
S32508006CA089FC02003B69D31A022B01D90323FEE14B4B1A688023DB001340F0D0484B5B68A3
S32508006CC04A4A134019007B685B691A02444B0A435A601BE0424B1A68414B49490A401A6061
S32508006CE0FFF768FC03003B6108E0FFF763FC02003B69D31A022B01D90323D8E1384B1A68D2
S32508006D008023DB001340F0D100E0C0467B681B680822134047D0324B9B6838221340182B83
S32508006D200AD12F4B1B6E022213403CD07B689B69002B38D10123BAE17B689B69002B19D00F
S32508006D40274B1A6E264B01210A431A66FFF732FC03003B6108E0FFF72DFC02003B69D31A6E
S32508006D60022B01D90323A2E11D4B1B6E02221340F1D018E01A4B1A6E194B01218A431A6674
S32508006D80FFF718FC03003B6108E0FFF713FC02003B69D31A022B01D9032388E1104B1B6E42
S32508006DA002221340F1D17B681B680422134000D1C6E01F23FB1800221A70094B9B68382284
S32508006DC01340202B1ED1064BDB6D0222134000D1B6E07B689B68002B00D0B1E0012366E1C4
S32508006DE000100240FFFFFEFFFFFFFBFFFF80FFFFFFC7FFFF0024F4000000002004000020A3
S32508006E00FFFEFFFFAC4BDA6B80235B05134001D1012300E00023002B11D0A74BDA6BA64BAA
S32508006E20802149050A43DA63A34BDA6B80235B051340FB60FB681F23FB1801221A709F4B98
S32508006E401A6880235B0013401AD19C4B1A689B4B802149000A431A60FFF7ACFB03003B612A
S32508006E6008E0FFF7A7FB02003B69D31A022B01D903231CE1914B1A6880235B001340F0D058
S32508006E807B689B68012B06D18B4BDA6D8A4B01210A43DA651CE07B689B68052B0CD1864B9B
S32508006EA0DA6D854B04210A43DA65834BDA6D824B01210A43DA650BE07F4BDA6D7E4B012185
S32508006EC08A43DA657C4BDA6D7B4B04218A43DA657B689B68002B14D0FFF76CFB03003B61A2
S32508006EE009E0FFF767FB02003B69D31A744A934201D90323DBE0704BDB6D02221340F0D028
S32508006F0013E0FFF757FB03003B6109E0FFF752FB02003B69D31A6A4A934201D90323C6E09B
S32508006F20654BDB6D02221340F0D11F23FB181B78012B05D1604BDA6B5F4B62490A40DA635D
S32508006F407B68DB69002B00D1B0E05B4B9B6838221340102B00D178E07B68DB69022B53D13E
S32508006F60554B1A68544B58490A401A60FFF722FB03003B6108E0FFF71DFB02003B69D31AA2
S32508006F80022B01D9032392E04B4B1A6880239B041340F0D1484BDB684C4A134019007B681B
S32508006FA01A6A7B685B6A1A437B689B6A1B021A437B68DB6A1A437B681B6B1A433E4B0A43B7
S32508006FC0DA603D4B1A683C4B802149040A431A60394BDA68384B802149050A43DA60FFF76E
S32508006FE0E9FA03003B6108E0FFF7E4FA02003B69D31A022B01D9032359E02F4B1A688023AD
S325080070009B041340F0D051E02B4B1A682A4B2E490A401A60FFF7CEFA03003B6108E0FFF79C
S32508007020C9FA02003B69D31A022B01D903233EE0214B1A6880239B041340F0D11E4BDA68B2
S325080070401D4B23490A40DA6030E07B68DB69012B01D101232BE0184BDB687B617B690322DB
S325080070601A407B681B6A9A421ED17B6970221A407B685B6A9A4217D17A69FE23DB011A40FF
S325080070807B689B6A1B029A420ED17A69F8239B031A407B68DB6A9A4206D17B695B0F5A07A2
S325080070A07B681B6B9A4201D0012300E000231800BD4608B080BDC04600100240007000406D
S325080070C088130000FFFFFFEFFFFFFFFE8C80C11FFCFFFEEF80B584B000AF786039607B68E0
S325080070E0002B01D10123E9E0764B1B68072213403A689A421ED9734B1B680722934319000A
S32508007100704B3A680A431A60FFF754FA0300FB6009E0FFF74FFA0200FB68D31A6A4A934298
S3250800712001D90323CAE0674B1B68072213403A689A42EED17B681B680222134015D07B6804
S325080071401B680422134006D0604B9A685F4BE021C9010A439A605D4B9B685D4A1340190028
S325080071607B689A68594B0A439A607B681B680122134057D07B685B68012B07D1534B1A6864
S3250800718080239B0213402BD1012397E07B685B68022B07D14D4B1A6880239B0413401FD16D
S325080071A001238BE07B685B68002B07D1474B1A688023DB00134013D101237FE07B685B6897
S325080071C0032B06D1414B1B6E0222134008D1012374E03E4BDB6D0222134001D101236DE034
S325080071E03A4B9B680722934319007B685A68374B0A439A60FFF7DEF90300FB6009E0FFF769
S32508007200D9F90200FB68D31A2F4A934201D9032354E02E4B9B6838221A407B685B68DB0009
S325080072209A42ECD1274B1B68072213403A689A421ED2244B1B68072293431900214B3A68B0
S325080072400A431A60FFF7B6F90300FB6009E0FFF7B1F90200FB68D31A1B4A934201D9032341
S325080072602CE0184B1B68072213403A689A42EED17B681B680422134009D0144B9B68154ADC
S32508007280134019007B68DA68104B0A439A6000F029F801000D4B9B681B0A0F221A400E4B37
S325080072A09200D3581F2213400A00DA400B4B1A600B4B1B681800FFF721F903001800BD465C
S325080072C004B080BD002002408813000000100240FFF0FFFFFF8FFFFFF0750008000000205A
S325080072E00400002080B586B000AF3C4B9B68382213400FD1394B1B68DB0A072213400122A0
S325080073009A4013003B6039683548FEF7D5FE03003B615DE0314B9B6838221340082B02D1E3
S32508007320304B3B6154E02D4B9B6838221340102B38D12A4BDB6803221340FB60274BDB6848
S325080073401B09072213400133BB60FB68032B0DD1B9682448FEF7B0FE030019001F4BDB68C8
S325080073601B0A7F2213404B437B610DE0B9681C48FEF7A2FE03001900184BDB681B0A7F22ED
S3250800738013404B437B61C046144BDB685B0F0722134001337B6079687869FEF78DFE030040
S325080073A03B6115E00D4B9B6838221340202B03D180231B023B610BE0084B9B6838221340BD
S325080073C0182B03D1FA23DB013B6101E000233B613B691800BD4606B080BDC0460010024049
S325080073E00024F40000127A00F0B50500830749D0541E002A45D003000326CAB202E001351D
S32508007400013C3ED301332A703342F8D1032C30D9FF220A401502AD182A04AD180F2C34D94A
S325080074202700103F3F093E01B4461E001A0010366644156055609560D56010329642F8D1E8
S3250800744001373F01DB190F270C22274022403C00002A0ED03E1FB608B400A4461A001C1D35
S32508007460644420C2A242FCD103240136B6009B193C40002C05D0C9B21C19197001339C4233
S32508007480FBD1F0BD03001400C0E72700E2E7C04670B50D4B0D4D5E1BB610AB4205D00024B5
S325080074A008CD01349847A642FAD800F095F8084B084D5E1BB610AB4205D0002408CD0134C7
S325080074C09847A642FAD870BD307600083076000838760008307600087047C0467047C0469E
S325080074E0034B10B5002B02D0024800F005F810BD000000000975000810B5010000230022D9
S32508007500002000F015F810BD70B5074C074D641BA41005D0013CA300EB589847002CF9D1A7
S3250800752000F060F870BDC0463C76000838760008F0B5D6464F4646469846244BC0B50600A8
S3250800754018689A460F009146FFF7C6FF204B1D68002D32D053466C6818681F2C30DC002E8B
S325080075600CD1631C0234A4006B606751FFF7B6FF0020E0BCBA46B146A846F0BD4946882212
S32508007580A300EB189950C42149008C46AC446146873AA240096891461143624611608421BA
S325080075A0424649005A50022EDBD129004A468D31FF310B6813430B60D3E7064D1D60C9E751
S325080075C0FFF78CFF01204042D3E7C0460C0000203400002038000020F8B5C046F8BC08BCB6
S325080075E09E467047F8B5C046F8BC08BC9E467047000000000000000000000000000000001C
S32508007600000000000000000000000000000000000100000002000000030000000400000052
S3250800762006000000070000000800000009000000E174000845620008196200080024F40077
S31108007640040000000100000030000020DB
S50300B349
S7050800646925
