S00F00004E52472D5248542E7372656313
S325080060000090002091800008317A0008377A0008000000000000000000000000000000003D
S325080060200000000000000000000000003D7A00080000000000000000477A0008517A0008F7
S32508006040E180000800000000E1800008E1800008E1800008E1800008E1800008E180000853
S3250800606000000000E1800008617A0008797A0008E1800008E1800008E18000080000000090
S32508006080E1800008E1800008E1800008E1800008E1800008E1800008E1800008E1800008AA
S325080060A0E1800008E1800008E18000089D7A0008E1800008E180000810B5064C2378002BC9
S325080060C007D1054B002B02D0044800E000BF0123237010BD94000020000000009CBC00080A
S325080060E0044B10B5002B03D00349044800E000BF10BDC04600000000980000209CBC00085E
S32508006100002243088B4274D303098B425FD3030A8B4244D3030B8B4228D3030C8B420DD362
S32508006120FF22090212BA030C8B4202D31212090265D0030B8B4219D300E0090AC30B8B42EF
S3250800614001D3CB03C01A5241830B8B4201D38B03C01A5241430B8B4201D34B03C01A52414E
S32508006160030B8B4201D30B03C01A5241C30A8B4201D3CB02C01A5241830A8B4201D38B0284
S32508006180C01A5241430A8B4201D34B02C01A5241030A8B4201D30B02C01A5241CDD2C30949
S325080061A08B4201D3CB01C01A524183098B4201D38B01C01A524143098B4201D34B01C01ABE
S325080061C0524103098B4201D30B01C01A5241C3088B4201D3CB00C01A524183088B4201D328
S325080061E08B00C01A524143088B4201D34B00C01A5241411A00D20146524110467047FFE7FB
S3250800620001B5002000F0F0F802BDC0460029F7D076E7704703460B437FD4002243088B42D5
S3250800622074D303098B425FD3030A8B4244D3030B8B4228D3030C8B420DD3FF22090212BA83
S32508006240030C8B4202D31212090265D0030B8B4219D300E0090AC30B8B4201D3CB03C01A4A
S325080062605241830B8B4201D38B03C01A5241430B8B4201D34B03C01A5241030B8B4201D3FA
S325080062800B03C01A5241C30A8B4201D3CB02C01A5241830A8B4201D38B02C01A5241430A58
S325080062A08B4201D34B02C01A5241030A8B4201D30B02C01A5241CDD2C3098B4201D3CB0175
S325080062C0C01A524183098B4201D38B01C01A524143098B4201D34B01C01A524103098B429E
S325080062E001D30B01C01A5241C3088B4201D3CB00C01A524183088B4201D38B00C01A52417B
S3250800630043088B4201D34B00C01A5241411A00D201465241104670475DE0CA0F00D0494246
S32508006320031000D34042534000229C4603098B422DD3030A8B4212D3FC22890112BA030A37
S325080063408B420CD3890192118B4208D3890192118B4204D389013AD0921100E08909C30968
S325080063608B4201D3CB01C01A524183098B4201D38B01C01A524143098B4201D34B01C01AFC
S32508006380524103098B4201D30B01C01A5241C3088B4201D3CB00C01A524183088B4201D366
S325080063A08B00C01A5241D9D243088B4201D34B00C01A5241411A00D20146634652415B106D
S325080063C0104601D34042002B00D54942704763465B1000D3404201B5002000F005F802BDD6
S325080063E00029F8D016E770477047C04680B500AFBFF34F8FC046044B044ADA60BFF34F8F4C
S32508006400C046C046FDE7C04600ED00E00400FA05F0B5B5B000AFA423FA181060A0203A1894
S325080064201160AB4B180002F061FF2F24A0202218D2190023137072B6C0460C210A18D21937
S32508006440022313600A18D219002353600A18D219A423FB181B6893600B18DA190123D360E9
S3250800646002F0D4FAC046C046C046C046984B180002F03CFFA0202318DC1908231B18DA19CD
S325080064800C210B18DB191100180002F06DFB03002370904B9B8B98217A18136000239C22F1
S325080064A0BA1813608B4B1E229B5E9022BC182360DB1794243C192360BB185C681B681A00BB
S325080064C016141D047B181868596840197141814B1B8C8822BC18236000238C243C19236065
S325080064E0BB181B681B008422BA18136000238022BC182360BB185C681B68C0186141754BC2
S325080065005B8CBB670023FB67BB6F1B047B6700233B673A6F7B6F12184B41C0217C182260AF
S325080065206360A026BB191B68BC217C182360684B180002F0DBFE2F25AB19DC19C0203B18A3
S325080065401A685B68BC2179180968012002F010FA030023705F4B9B8CBB660023FB665D4B38
S32508006560DB8C3B6600237B663B6E7C6E1A00120CFA651B04BB65B86EF96EBB6DFC6DC018A2
S325080065806141544B1B8D3B6500237B653B6D1B00FB640023BB64BB6CFC6CC01861414D4B5C
S325080065A05B8D3B6400237B643B6C1B04FB630023BB63BA6BFB6B12184B41C0203C182260E8
S325080065C06360BC22B9180B680833BC182360404B180002F08BFEAC19E419C0203B181A68A1
S325080065E05B68BC2179180968012002F0C1F903002370394B1621180000F086FC0300354AC1
S325080066005386344B2C229B5E3B63DB177B63314B2E229B5EBB62DB17FB62BB6AFC6A1A0089
S3250800662012147A621B043B623A6B7B6B386A796A12184B412749098EB9610021F961B9690A
S3250800664009007961002139613869796912184B412049498EB9600021F960B968090479607B
S32508006660002139603868796812184B41C0203C1822606360BC22B9180B680833BC182360EE
S32508006680134B180002F032FEAC19E419C023FB181A685B68BC2179180968012002F068F904
S325080066A00300237002F0D6F962B6C046AB19DB191B78002B01D0C04600E0C0462F23A02210
S325080066C09B18DB191B781800BD4635B0F0BDC04660010020B0000020CC000020F0B5B5B078
S325080066E000AFA423FA181060A0203A181160AD4B180002F0FBFD2F24A0202218D2190023BC
S32508006700137072B6C0460C210A18D219022313600A18D219002353600A18D219A423FB181E
S325080067201B6893600B18DA190123D36002F06EF9C046C046C046C0469A4B180002F0D6FD35
S32508006740A0202318DC1908231B18DA190C210B18DB191100180002F007FA03002370924B17
S325080067609B8E98217A18136000239C22BA1813608D4BDB8E9022BC182360002394243C1984
S325080067802360BB185C681B681A00160C1D047B181868596840197141834B1B8F8822BC181C
S325080067A0236000238C243C192360BB181B681B008422BA18136000238022BC182360BB1852
S325080067C05C681B68C0186141774B5B8FBB670023FB67BB6F1B047B6700233B673A6F7B6F14
S325080067E012184B41C0217C1822606360A026BB191B68BC217C1823606A4B180002F076FDD8
S325080068002F25AB19DC19C0203B181A685B68BC2179180968012002F0ABF803002370624B0D
S325080068209B8FBB660023FB665F4BDB8F3B6600237B663B6E7C6E1A00120CFA651B04BB6559
S32508006840B86EF96EBB6DFC6DC0186141564A4023D35A3B6500237B653B6D1B00FB6400237A
S32508006860BB64BB6CFC6CC01861414F4A4223D35A3B6400237B643B6C1B04FB630023BB63B1
S32508006880BA6BFB6B12184B41C0203C1822606360BC22B9180B680833BC182360414B1800D8
S325080068A002F024FDAC19E419C0203B181A685B68BC2179180968012002F05AF803002370A3
S325080068C03A4B1621180000F01FFB030036494A228B52354A4423D35A3B6300237B63324AD3
S325080068E04623D35ABB620023FB62BB6AFC6A1A00120C7A621B043B623A6B7B6B386A796AEC
S3250800690012184B4128494820095AB9610021F961B969090079610021396138697969121875
S325080069204B4121494A20095AB9600021F960B96809047960002139603868796812184B41FB
S32508006940C0203C1822606360BC22B9180B680833BC182360134B180002F0C8FCAC19E4190E
S32508006960C023FB181A685B68BC2179180968012001F0FEFF0300237002F06CF862B6C046D6
S32508006980AB19DB191B78002B01D0C04600E0C0462F23A0229B18DB191B781800BD4635B068
S325080069A0F0BDC04660010020B0000020E400002080B584B000AF78607B68023BFB60FB68F3
S325080069C00233FB60FB681A88334B9A83FB680233FB60FB681B881AB22F4BDA83FB68023345
S325080069E0FB60FB681A882C4B1A84FB680233FB60FB681A88284B5A84FB680233FB60FB6875
S32508006A001A88254B9A84FB680233FB60FB681A88214BDA84FB680233FB60FB681A881E4B15
S32508006A201A85FB680233FB60FB681A881A4B5A85FB680233FB60FB681B881AB2164B9A8528
S32508006A40FB680233FB60FB681B881AB2124BDA85FB680233FB60FB681A880F4B1A86FB6852
S32508006A600233FB60FB681A880B4B5A860B4B1821180000F049FA031E08D0074B1B89022250
S32508006A8013439AB2044B1A81012300E000231800BD4604B080BDC046B0000020CC00002067
S32508006AA080B584B000AF78607B68023BFB60FB680233FB60FB681A88344B9A86FB6802332E
S32508006AC0FB60FB681A88314BDA86FB680233FB60FB681A882D4B1A87FB680233FB60FB6805
S32508006AE01A882A4B5A87FB680233FB60FB681A88264B9A87FB680233FB60FB681A88234BA0
S32508006B00DA87FB680233FB60FB6819881F4B40229952FB680233FB60FB6819881B4B422297
S32508006B209952FB680233FB60FB681988174B44229952FB680233FB60FB681988134B4622F5
S32508006B409952FB680233FB60FB6819880F4B48229952FB680233FB60FB6819880B4B4A22DD
S32508006B6099520B4B1821180000F0CEF9031E08D0064B1B89012213439AB2044B1A810123FD
S32508006B8000E000231800BD4604B080BDB0000020E400002080B500AF164B01229A83154B1F
S32508006BA00222DA83134B03221A84124B00225A84104B00229A840F4B0022DA840D4B0022D9
S32508006BC01A850C4B00225A850A4B00229A85094B0022DA85074B00221A86074B1621180090
S32508006BE000F092F903001A00024B5A86C046BD4680BDC046B0000020CC00002080B500AFD6
S32508006C001A4B01229A86194B0122DA86174B03221A87164B00225A87144B01229A87134B4A
S32508006C200022DA87114B4022002199520F4B4222FA21090199520D4B4422FA2189009952DE
S32508006C400A4B46220A499952084B482200219952084B1621180000F057F903001900034B16
S32508006C604A229952C046BD4680BDC046B0000020204E0000E400002080B500AFC046BD4634
S32508006C8080BD000080B500AF7A4B4C229B5A7A4A934223D1794B19003B20FFF7B9FB03002B
S32508006CA01A00774B1A70764B1B78002B01D0C04600E0C046734B19003C20FFF7A9FB030054
S32508006CC01A00714B1A70704B1B78002B01D0C04600E0C046674B4C2200219952654B4C22C6
S32508006CE09B5A6A4A934223D1694B19003D20FFF7F5FC03001A00624B1A70614B1B78002B45
S32508006D0001D0C04600E0C046624B19003E20FFF7E5FC03001A005C4B1A705B4B1B78002BFB
S32508006D2001D0C04600E0C046524B4C2200219952504B4C229B5A584A934243D14F4B180036
S32508006D40FFF736FE03001A004D4B1A704D4B1800FFF72EFE03001A004B4B1A70484B1B7887
S32508006D60002B0DD1484B1B78012B09D1434B1800FFF71EFE434B19003C20FFF749FB1DE0DE
S32508006D803F4B1B78012B0DD13F4B1B78002B09D13C4B1800FFF70CFE384B19003B20FFF710
S32508006DA037FB0BE0364B1B78012B06D1364B1B78012B02D1FFF7EEFE00E0C0462D4B4C22D0
S32508006DC0002199522B4B4C229B5A344A934243D12F4B1800FFF764FE03001A00284B1A7055
S32508006DE02C4B1800FFF75CFE03001A00264B1A70234B1B78002B0DD1234B1B78012B09D17D
S32508006E00234B1800FFF74CFE224B19003E20FFF765FC1DE01A4B1B78012B0DD11A4B1B786C
S32508006E20002B09D11B4B1800FFF73AFE184B19003D20FFF753FC0BE0114B1B78012B06D198
S32508006E40114B1B78012B02D1FFF7D8FE00E0C046084B4C2200219952064B4C229B5A104AA9
S32508006E60934204D1642001F0C3F9FFF7BFFAC046BD4680BDB0000020B0C1000000D8010812
S32508006E800901002000E001080A010020C0C1000000E8010800F00108D0C10000E0C1000009
S32508006EA0A0C1000080B500AF00F08CF8124B00221A81124B180002F019FA00F035FE0E4BFB
S32508006EC04C220F499952FFF7DDFE0B4B4C220D499952FFF7D7FE084B0E221A80064B0022C2
S32508006EE05A8000F0B5F800F0F9F800F06FFEFFF7C9FEFFF7C1FEF8E7B0000020600100202D
S32508006F00D0C1FFFFE0C1FFFF80B586B000AF78600A00BB1C1A807B68FB601223FB1801221F
S32508006F2052421A801623FB1800221A8039E0FB681B7899B21222BB18BA1812884A401A801C
S32508006F401423FB1800221A801DE012217B181B880122134005D17B187A18128852081A80B8
S32508006F600BE012217B187A18128852081A807B187A18128812494A401A8014217B181A888A
S32508006F807B1801321A801423FB181B88072BDCD9FB680133FB6016217B181A887B1801328B
S32508006FA01A801623FA18BB1C12881B889A42BED31223FB181B881800BD4606B080BDC0465E
S32508006FC001A0FFFF80B500AF1C4B180002F08EF9FA235B00180001F00BF9184B180002F036
S32508006FE085F9FA235B00180001F002F9144B01221021180001F0DDFF124B1B685A68114BF3
S325080070001B68802109040A435A600E4B1B681A680C4B1B688021C9040A431A60094B1B68E6
S3250800702028225A61084B01221A700849054B1022180003F029FDC046BD4680BD6001002072
S3250800704000040050BC010020080100200C03002080B500AF204B0F221A82A023DB050421B5
S32508007060180001F089FF031E06D01B4B1B8A082293439AB2184B1A82A023DB050821180040
S3250800708001F07AFF031E06D0134B1B8A042293439AB2114B1A82A023DB051021180001F061
S325080070A06BFF031E06D00C4B1B8A022293439AB2094B1A82A023DB052021180001F05CFFE7
S325080070C0031E06D0044B1B8A012293439AB2024B1A82C046BD4680BDB000002080B500AF8F
S325080070E0514B1B8A002B00D07CE04F4B1B8F022B04D14E4B962252015A6039E04A4B1B8FEE
S32508007100032B04D1494B962292015A6030E0464B1B8F042B04D1454B9622D2015A6027E09A
S32508007120414B1B8F052B04D1404B962212025A601EE03D4B1B8F062B04D13C4BE122120221
S325080071405A6015E0384B1B8F072B04D1374BE12252025A600CE0344B1B8F002B04D1334B18
S325080071609622D2005A6003E0304B962292015A602D4B5B8F022B08D12C4B8022D2001A618C
S325080071802A4B802252019A6012E0274B5B8F012B08D1264BC022D2001A61244B8022520126
S325080071A09A6005E0214B00221A61204B00229A601D4B9B8F012B03D11C4B0022DA600BE012
S325080071C0194B9B8F022B04D1184B80229201DA6002E0164B0022DA60134BDB8EDAB2144BEE
S325080071E01A7014E0124B01221A700F4B1B8ADAB2104B1A700D4B962292015A600B4B0022B4
S325080072009A600A4B00221A61084B0022DA60074800230022002104F089FB031E01D000F0B6
S3250800722057FAC046BD4680BDB0000020BC010020FE0300200801002080B582B000AF144B3D
S32508007240DA6B134B802109050A43DA63104BDA6B80231B0513407B607B680E4B9A680D4B1D
S32508007260802149010A439A6000F03CFF00F014F800F084F900F05CF900F05AF800F0B8F813
S3250800728000F006F900F094F8FFF70CFEFCE7C046001002400058014090B593B000AF142432
S325080072A03B19180034231A00002104F0CBFC3B1D180010231A00002104F0C4FC80239B0037
S325080072C0180002F023F83B190A221A603B1980225200DA6021007B1800221A617B184022B9
S325080072E05A617B1801229A617B180022DA617B18180002F057F8031E01D000F0E9F93B1D1C
S3250800730007221A603B1D00225A603B1D00229A603B1D0022DA603B1D0021180002F052FB90
S32508007320031E01D000F0D4F9C046BD4613B090BD80B500AF1B4B1C4A1A601A4B1B4A5A60C9
S32508007340184B00229A60174B0122DA60154B00221A61144B00225A61124B00229A61114BD2
S325080073600022DA610F4B00221A620E4B180001F03DFE031E01D000F0ABF90A4B00211800F9
S3250800738001F0CAFE031E01D000F0A2F9054B0021180001F00DFF031E01D000F099F9C046A9
S325080073A0BD4680BD0C010020005400405B3D300080B500AF0B4B0C4A1A600A4B00225A60BB
S325080073C0084B0A4ADA60074B084A9A60054B180001F03AFF031E01D000F07AF9C046BD4630
S325080073E080BDC0466001002000300040FF0F000080B588B000AF3B1D18001C231A00002137
S3250800740004F020FC1F4B204A1A601E4B00225A601C4B00229A601B4B1C4ADA60194B0022AC
S325080074201A61184B00229A61164B180002F0A8FD031E01D000F04CF9124B180002F0F8FDB0
S32508007440031E01D000F044F93B1D60221A603B1D00225A603B1D00229A603B1D00221A610E
S32508007460391D084B0022180002F042FE031E01D000F02EF9034B180000F0D6F9C046BD46B2
S3250800748008B080BD7001002000200040FFFF000080B500AF244B254A1A60234BE1225202F9
S325080074A05A60214B00229A601F4B0022DA601E4B00221A611C4B0C225A611B4B00229A61DD
S325080074C0194B0022DA61184B00221A62164B00225A62154B00229A6213480023002200215E
S325080074E004F024FA031E01D000F0F2F80E4B0021180004F0C7FA031E01D000F0E9F80A4B41
S325080075000021180004F0FEFA031E01D000F0E0F8054B180004F07CFA031E01D000F0D8F8FA
S32508007520C046BD4680BDC046BC0100200038014080B582B000AF104B9A6B0F4B01210A435C
S325080075409A630D4B9B6B012213407B607B68002201210A2000F01CFF0A2000F02EFF0022AC
S3250800756001210B2000F014FF0B2000F026FFC046BD4602B080BDC0460010024090B58BB09D
S3250800758000AF14243B19180014231A00002104F059FB4B4B5A6B4A4B20210A435A63484B02
S325080075A05B6B202213403B613B69454B5A6B444B01210A435A63424B5B6B01221340FB60EE
S325080075C0FB683F4B5A6B3E4B02210A435A633C4B5B6B02221340BB60BB68394B5A6B384B67
S325080075E008210A435A63364B5B6B082213407B607B683449344B0022180001F0DAFC334B4D
S3250800760000220121180001F0D4FC3B193C221A603B1900225A603B1901229A603A19A0235C
S32508007620DB051100180001F043FB3B19254A1A603B1901225A603B1900229A603B190022B0
S32508007640DA603B19204A1900100001F031FB21007B18C022D2011A600C003B1900225A60BF
S325080076603B1901229A603B19174A1900100001F01FFB3B1901221A603B1901225A603B192C
S3250800768000229A603B190022DA603B190F4A1900100001F00DFB21007B1820221A607B183E
S325080076A000225A607B1800229A607B18064A1900100001F0FDFAC046BD460BB090BDC04626
S325080076C000100240121C000000040050000C005080B500AF72B6C046FEE7000080B582B00E
S325080076E000AF0F4B1A6C0E4B01210A431A640C4B1B6C012213407B607B68094BDA6B084BA9
S32508007700802149050A43DA63054BDA6B80235B0513403B603B68C046BD4602B080BDC046BB
S325080077200010024090B591B000AF78602C23FB18180014231A00002104F084FA10243B19F6
S3250800774018001C231A00002104F07CFA7B681B68224A93423DD13B1920221A603B190022E4
S32508007760DA603B19180002F0D7FA031E01D0FFF7AFFF1B4B5A6B1A4B02210A435A63184BDC
S325080077805B6B02221340FB60FB682C217B18C0221A607B1812225A607B1800229A607B18E1
S325080077A00022DA607B1806221A617B180D4A1900100001F07DFA0A4BDA6B094B8021890393
S325080077C00A43DA63064BDA6B80239B031340BB60BB68C046BD4611B090BDC04600540040F8
S325080077E0001002400004005080B584B000AF78607B681B680A4A93420DD10A4B1A6C094B49
S32508007800802109020A431A64064B1A6C80231B021340FB60FB68C046BD4604B080BDC0463B
S32508007820002000400010024090B589B000AF78600C243B19180014231A00002104F002FA85
S325080078407B681B68144A934221D1144B5A6B134B20210A435A63114B5B6B20221340BB60F0
S32508007860BB6821007B1801221A607B1802225A607B1800229A607B180022DA607B180222C0
S325080078801A617B18064A1900100001F011FAC046BD4609B090BDC046002000400010024090
S325080078A00014005090B591B000AF78602C23FB18180014231A00002104F0C4F910243B1924
S325080078C018001C231A00002104F0BCF97B681B68514A934200D09AE03B1901221A603B19FA
S325080078E000225A603B19180002F016FA031E01D0FFF7EEFE494B1A6C484B8021C9010A43F7
S325080079001A64464B1A6C8023DB011340FB60FB68424B5A6B414B01210A435A633F4B5B6BDA
S3250800792001221340BB60BB682C217B18B02252011A607B1802225A607B1800229A607B1853
S325080079400022DA607B1801221A617A18A023DB051100180001F0ACF9314B324A1A60304BAB
S3250800796032225A602E4B00229A602D4B0022DA602B4B80221A612A4B00225A61284B002208
S325080079809A61274B0022DA61254B00221A62244B180000F02FFD031E01D0FFF799FE7B68FC
S325080079A080211F4A5A501E4B7A689A621E4B1F4A1A601D4B33225A601B4B10229A601A4B04
S325080079C00022DA60184B80221A61174B00225A61154B00229A61144B0022DA61124B0022C6
S325080079E01A62114B180000F005FD031E01D0FFF76FFE7B680C4ADA670B4B7A689A62002272
S32508007A0001211B2000F0C4FC1B2000F0D6FCC046BD4611B090BDC046003801400010024066
S32508007A205002002030000240AC0200204400024080B500AFFEE780B500AFFEE780B500AF8A
S32508007A40C046BD4680BD80B500AFC046BD4680BD80B500AF00F0B0FBC046BD4680BD0000E3
S32508007A6080B500AF034B180000F036FEC046BD4680BDC0465002002080B500AF034B180082
S32508007A8000F02AFEC046BD4680BDC046AC02002080B500AFC046BD4680BD000080B500AF98
S32508007AA01C4B1B68DA6980231B01134024D0194B1B685B6ADAB2184B1A70164B180003F0F4
S32508007AC03BF81649134B1022180002F0DDFF114B1B68DB690122134007D0114B00221A7018
S32508007AE00C4B1B6801221A6202E00D4B01221A70084B1B680B4A1A62064B1B68DB694022F7
S32508007B00134004D0034B1B684A221A62C046C046BD4680BDBC010020080300200C030020F4
S32508007B20090300200908000080B500AF074B0E221A80064B1A225A80044B26229A80034B94
S32508007B402B22DA80C046BD4680BDC0460404002080B582B000AF0200BB1D1A807B1D0A1CB4
S32508007B601A707B1D1A787B1D013A1A707B1D1B7899B2BB1DBA1D12888A181A80124B1B88EB
S32508007B80BA1D12889A4201D2002318E00E4B5B88BA1D12889A4201D2012310E00A4B9B88B4
S32508007BA0BA1D12889A4201D2022308E0064BDB88BA1D12889A4201D2022300E00023180076
S32508007BC0BD4602B080BDC04604040020B0B584B000AFE34B1B78012B00D046E2E14B1A788C
S32508007BE0E14B1B789A4200D0ABE0DE4B5B78032B00D0A6E0DB4B08211800FFF785F9031E05
S32508007C0000D09EE0D74B5B796E2B00D999E0D74B1B78002B00D08DE0D24B9B781B02D14AA2
S32508007C20D27813435A00D24BD218D24B1A60CE4B1A78D14B1A70D04B03225A70C94B5B795B
S32508007C40DB18DAB2CC4B9A70CB4B9B789BB203339AB2CA4B1A80C84B9B781A00C54B1B68FC
S32508007C60D318C74A934200D9FAE10F23FB1800221A7020E0BF4B1B681B881B0A9AB20F20B0
S32508007C803B181B785B000333D1B2BB4AD154B94B1B681A883B181B7802335B00D1B2B64A90
S32508007CA0D154B44B1B689A1CB24B1A603B181A783B1801321A70AB4B5B790F22BA18127896
S32508007CC09A42D7D3AD4B1A880C257C19AA4B11001800FFF719F903002380A84B1B881A0034
S32508007CE07B191B88D9B2A44B99547B191B881B0A9AB2A24B1B880133D1B29F4AD1549F4BF1
S32508007D001B8802339AB29C499E4B180002F02AFE9C4B88222021995092499A4B102218006C
S32508007D2002F0B2FE984B1A78904B1A708C4B02221A709AE18D4B1B78013BDAB28B4B1A7026
S32508007D4093E1884B1A78884B1B789A4200D08BE0844B5B78062B00D086E0824B08211800A8
S32508007D60FFF7D2F8031E00D07EE07E4B9B781B021AB27C4BDB781BB213431BB29BB20B259A
S32508007D807C1901211800FFF7E3FE03002370784B52229B5A7D4A934203D17B191B78012BAA
S32508007DA005D00B23FB181B78022B00D05AE16F4B1B78002B51D16B4B5B7999B2694B1B791D
S32508007DC09BB21B029AB208203B188A181A80654B9B781B02634AD27813435A00644BD21808
S32508007DE0644B1A60634B1B683A1812881A800F23FB1800221A700DE00F203B181A783B1850
S32508007E001B785849895C5C4AD1543B181A783B1801321A700F23FB181B78072BECD9574B0A
S32508007E2006221A80554B1B8802339AB25249554B180002F097FD534B8822202199504949D1
S32508007E40504B1022180002F01FFE4F4B1A78474B1A70434B02221A7004E1444B1B78013B59
S32508007E60DAB2424B1A70FDE03E4B1A783E4B1B789A4200D0D0E03B4B5B78102B00D0CBE0D2
S32508007E80384B0D211800FFF73FF8031E00D0C3E0344B9B781B021AB2324BDB781BB21343DC
S32508007EA01BB29AB22F4B5B790B257C1919001000FFF74EFE030023702D4B52229B5A334A29
S32508007EC0934203D17B191B78012B05D00B23FB181B78022B00D0C7E0244B1B78002B00D04E
S32508007EE093E0204B9B781B021E4AD27813435A001F4BD2181F4B1A601A4B1B7A99B2194B23
S32508007F00DB799BB21B029AB21A4B1B688A1892B21A80144B9B781B02124AD2781343013322
S32508007F205A00134BD218134B1A600E4B9B7A99B20C4B5B7A9BB21B029AB20E4B1B688A18A0
S32508007F4092B21A80BC1D074B06211800FEF7DCFF030023800F23FB1800221A7026E0C04658
S32508007F60090300200C03002008010020FF030020B00000200C0400201C03002000040020EA
S32508007F80FF7F0020BC010020FE030020341200000F203B181A783B181B783549895C354A15
S32508007FA0D1543B181A783B1801321A700F23FB181B78052BECD9BB1D1B88DAB22D4B9A7142
S32508007FC0BB1D1B881B0A9BB2DAB22A4BDA712A4B06221A80284B1B8802339AB22549274BAC
S32508007FE0180002F0BFFC254B8822202199502049224B1022180002F047FD214B1A78214BAA
S325080080001A70214B02221A702EE01E4B1B78013BDAB21C4B1A7027E01C4B1B68144ADA6062
S325080080201A4B1B681A68194B1B6801218A431A60164B1B6810225A60144B1B681A68134BE6
S325080080401B6801210A431A600C4B1B680A221A620B4B1A780B4B1A700B4B00221A7004E076
S32508008060C04602E0C04600E0C046BD4604B0B0BD0C0300201C03002000040020BC0100208B
S32508008080FE030020FF03002009030020500200200D488546FFF7FCFC0C480D490D4A0023BF
S325080080A002E0D458C4500433C4188C42F9D30A4A0A4C002301E013600432A242FBD303F0E7
S325080080C0C9FDFFF7B9F8FEE7009000200000002094000020ACBD0008940000203004002043
S325080080E0FEE7000080B582B000AFFB1D00221A700B4B1A680A4B802149000A431A600320B2
S3250800810000F010F8031E03D0FB1D01221A7001E0FFF7E4FAFB1D1B781800BD4602B080BD36
S325080081200020024090B585B000AF78600F23FB1800221A701D4B1B78002B2BD01C4B1C68D1
S325080081401A4B1B781900FA239800FDF7D9FF030019002000FDF7D4FF0300180000F03DF93B
S32508008160031E12D17B68032B0AD8796801235B420022180000F00CF90E4B7A681A600DE087
S325080081800F23FB1801221A7008E00F23FB1801221A7003E00F23FB1801221A700F23FB18EB
S325080081A01B781800BD4605B090BDC04608000020000000200400002080B500AF054B1B78C8
S325080081C01A00054B1B68D218034B1A60C046BD4680BDC046080000201004002080B500AF66
S325080081E0024B1B681800BD4680BDC0461004002080B584B000AF7860FFF7F0FF0300BB601C
S325080082007B68FB60FB68013305D00A4B1B781A00FB689B18FB60C046FFF7E0FF0200BB6833
S32508008220D31AFA689A42F7D8C046C046BD4604B080BDC0460800002080B582B000AF0200F0
S32508008240FB1D1A70FB1D1B787F2B09D8FB1D1B781A001F231A40044B012191400A001A6011
S32508008260C046BD4602B080BD00E100E090B583B000AF02003960FB1D1A70FB1D1B787F2B7E
S3250800828028D82F4AFB1D1B785BB29B08C0339B009B58FA1D1278110003220A40D200FF2168
S325080082A091400A00D2431A4011003B689B01FF221A40FB1D1B78180003230340DB009A40BA
S325080082C01F48FB1D1B785BB29B080A43C0339B001A5031E01B4AFB1D1B7819000F230B40D2
S325080082E0083B9B0806339B00D31804331B68FA1D1278110003220A40D200FF2191400A0023
S32508008300D2431A4011003B689B01FF221A40FB1D1B78180003230340DB009A400948FB1DCB
S325080083201B781C000F232340083B9B080A4306339B00C31804331A60C046BD4603B090BD4F
S3250800834000E100E000ED00E080B582B000AF78607B685A1E80235B049A4201D3012310E072
S325080083600A4B7A68013A5A6001235B4203211800FFF77CFF054B00229A60044B07221A60F7
S3250800838000231800BD4602B080BDC04610E000E080B584B000AFB9607A600F217B18021CE0
S325080083A01A70BA687B181B785BB211001800FFF75DFFC046BD4604B080BD80B582B000AF45
S325080083C00200FB1D1A70FB1D1B785BB21800FFF733FFC046BD4602B080BD80B582B000AFE5
S325080083E078607B681800FFF7AFFF03001800BD4602B080BD80B582B000AF78607B68002BEF
S3250800840001D1012377E07B681B683D4A9446634414211800FDF774FE03009A007B681A64E2
S325080084207B682522022199547B681B681A687B681B6834490A401A607B681B6819687B689B
S325080084409A687B68DB681A437B681B691A437B685B691A437B689B691A437B68DB691A43F9
S325080084607B681B6A1A437B681B680A431A607B68180000F02DFA7B689A688023DB019A42AA
S3250800848002D17B6800225A607B685A687B685B6C3F210A401A607B689B6C7A68D26C5A6005
S325080084A07B685B68002B11D07B685B68042B0DD87B68180000F038FA7B681B6D00221A601E
S325080084C07B685B6D7A68926D5A6008E07B6800221A657B6800225A657B6800229A657B6831
S325080084E00022DA637B682522012199547B6824220021995400231800BD4602B080BDC0466C
S32508008500F8FFFDBF0F80FFFF80B586B000AFF860B9607A603B601723FB1800221A70FB68B1
S3250800852024229B5C012B01D102236FE0FB68242201219954FB6825229B5CDBB2012B57D144
S32508008540FB68252202219954FB680022DA63FB681B681A68FB681B6801218A431A603B6837
S325080085607A68B968F86800F073F9FB681B6B002B08D0FB681B681A68FB681B680E210A4378
S325080085801A600FE0FB681B681A68FB681B6804218A431A60FB681B681A68FB681B680A2131
S325080085A00A431A60FB685B6C1A6880235B02134008D0FB685B6C1A68FB685B6C802149004F
S325080085C00A431A60FB681B6D002B08D0FB681B6D1A68FB681B6D802149000A431A60FB686C
S325080085E01B681A68FB681B6801210A431A600AE0FB688022DA63FB6824220021995417237C
S32508008600FB1801221A701723FB181B781800BD4606B080BD80B582B000AF78607B68002BA2
S3250800862001D1012350E07B6825229B5CDBB2022B08D07B680422DA637B68242200219954D6
S32508008640012341E07B681B681A687B681B680E218A431A607B685B6C1A687B685B6C1C49C8
S325080086600A401A607B681B681A687B681B6801218A431A60174B59687B681B6C1C22134053
S3250800868001229A40134B0A435A607B689B6C7A68D26C5A607B681B6D002B0CD07B681B6DC9
S325080086A01A687B681B6D0A490A401A607B685B6D7A68926D5A607B682522012199547B6846
S325080086C024220021995400231800BD4602B080BDFFFEFFFF0000024080B584B000AF7860DE
S325080086E0554B1B68FB607B681B681B68BB607B681B6C1C22134004229A401300FA68134027
S3250800870027D0BB680422134023D07B681B681B682022134007D17B681B681A687B681B6821
S3250800872004218A431A60444B59687B681B6C1C22134004229A40404B0A435A607B681B6B79
S32508008740002B00D173E07B681B6B7A68100098476DE07B681B6C1C22134002229A40130029
S32508008760FA6813402ED0BB68022213402AD07B681B681B68202213400BD17B681B681A6862
S325080087807B681B680A218A431A607B68252201219954294B59687B681B6C1C221340022266
S325080087A09A40254B0A435A607B682422002199547B68DB6A002B3AD07B68DB6A7A681000AC
S325080087C0984734E07B681B6C1C22134008229A401300FA6813402BD0BB680822134027D03F
S325080087E07B681B681A687B681B680E218A431A60114B59687B681B6C1C22134001229A4092
S325080088000D4B0A435A607B680122DA637B682522012199547B682422002199547B685B6B8F
S32508008820002B05D07B685B6B7A6810009847C046C046BD4604B080BD0000024080B582B007
S3250800884000AF78607B68DB6B1800BD4602B080BD80B584B000AFF860B9607A603B60FB68EF
S325080088609B6CFA68D26C5A60FB681B6D002B04D0FB685B6DFA68926D5A60144B5968FB68D6
S325080088801B6C1C22134001229A40104B0A435A60FB681B683A685A60FB689B68102B08D197
S325080088A0FB681B687A689A60FB681B68BA68DA6007E0FB681B68BA689A60FB681B687A68F5
S325080088C0DA60C046BD4604B080BDC0460000024080B584B000AF78607B681B6C9B08104AB7
S325080088E0944663449B001A007B685A647B681B681A00FF231340083B14211800FDF700FC1E
S325080089000300FB607B68074A9A64FB681F22134001229A407B68DA64C046BD4604B080BDAA
S32508008920008200108008024080B584B000AF78607B685B683F221340FB60FB680A4A944697
S3250800894063449B001A007B681A657B68074A5A65FB68013B0322134001229A407B689A6562
S32508008960C046BD4604B080BD3F82001040090240B0B586B000AFF860B9603A607B60214BF7
S325080089801B78012B01D1022338E01E4B01221A701C4B00225A6017257C19FA239B00180001
S325080089A000F074F8030023707B191B78002B1FD1FB68012B06D13A687B68B968080000F071
S325080089C0B3F805E03A68BB681100180003F074F91723FC18FA239B00180000F057F803004B
S325080089E02370094B5A69FB68D943074B0A405A61044B00221A701723FB181B781800BD46F3
S32508008A0006B0B0BD140400200020024080B582B000AFFB1D00221A700B4B5B69002B0CDA86
S32508008A20094B0A4A9A60084B094A9A60064B5B69002B02DAFB1D01221A70FB1D1B78180042
S32508008A40BD4602B080BDC0460020024023016745AB89EFCD80B582B000AFFB1D01221A7013
S32508008A60094B5A69084B802109060A435A61064B5B69002B02DAFB1D00221A70FB1D1B783B
S32508008A801800BD4602B080BD0020024080B584B000AF7860FFF7A2FB02007B689B18FB60E6
S32508008AA080235B02BB6007E0FFF798FB0200FB68934201D803232AE0174B1B69BA6813407F
S32508008AC0F2D1154B1B69154A1340BB60124B144A1A61BB68002B04D0124BBA685A6001235F
S32508008AE015E0FFF77BFB02007B689B18FB6007E0FFF774FB0200FB68934201D8032306E0A9
S32508008B00054B1A698023DB021340F1D100231800BD4604B080BDC04600200240FA830000CB
S32508008B20FB83000014040020B0B584B000AFF8603A607B600B4B5A690A4B01210A435A61C4
S32508008B40FB683A681A60BFF36F8FC0467B681C0000231D00FB68043322001A60C046BD4654
S32508008B6004B0B0BD00200240B0B584B000AF78603960354B1B78012B01D102235FE0324BB9
S32508008B8001221A70304B00225A600F257C19FA239B001800FFF77AFF030023702C003B19A5
S32508008BA01B78002B45D17B6804225A607B681B68042B0DD17B685B68180000F049F83C1959
S32508008BC0FA239B001800FFF761FF0300237030E03B68012252421A607B689B68BB601AE0EC
S32508008BE07B685B68BA681100180000F045F80F257C19FA239B001800FFF748FF03002370DD
S32508008C007B191B78002B03D03B68BA681A600AE0BB680133BB607B689A687B68DB68D31890
S32508008C20BA689A42DCD3094B5A69084B02218A435A61054B00221A700F23FB181B78180078
S32508008C40BD4604B0B0BDC046140400200020024080B582B000AF7860064B5A697B681A4300
S32508008C60044B802149020A435A61C046BD4602B080BDC0460020024080B584B000AF786053
S32508008C803960084B5B69084A1340FB603B68DA00FB681A43034B05490A435A61C046BD462C
S32508008CA004B080BD0020024007E0FFFF0200010080B586B000AF7860396000237B6147E1B9
S32508008CC03B681B6801217A6991400A001340FB60FB68002B00D138E13B685B68032213407C
S32508008CE0012B05D03B685B6803221340022B30D17B689B683B617B695B0003229A40130086
S32508008D00DA433B6913403B613B68DA687B695B009A4013003A6913433B617B683A699A606F
S32508008D207B685B683B6101227B699A401300DA433B6913403B613B685B681B0901221A4038
S32508008D407B699A4013003A6913433B617B683A695A603B685B6803221340032B17D07B6889
S32508008D60DB683B617B695B0003229A401300DA433B6913403B613B689A687B695B009A4047
S32508008D8013003A6913433B617B683A69DA603B685B6803221340022B23D17B69DA087B68B5
S32508008DA008329200D3583B617B69072213409B000F229A401300DA433B6913403B613B68A6
S32508008DC01A697B6907210B409B009A4013003A6913433B617B69DA087B6808329200396977
S32508008DE0D1507B681B683B617B695B0003229A401300DA433B6913403B613B685B680322B6
S32508008E001A407B695B009A4013003A6913433B617B683A691A603B685A68C0239B021340F1
S32508008E2000D192E0504A7B699B0818339B009B583B617B6903221340DB000F229A401300F6
S32508008E40DA433B6913403B617A68A023DB059A4213D07B68454A93420DD07B68444A9342A6
S32508008E6007D07B68434A934201D1032306E0052304E0022302E0012300E000237A690321A9
S32508008E800A40D20093403A6913433B6136497B699B0818339B003A695A50334B1B683B616A
S32508008EA0FB68DA433B6913403B613B685A6880235B03134003D03A69FB6813433B612A4B98
S32508008EC03A691A60284B5B683B61FB68DA433B6913403B613B685A6880239B03134003D0B6
S32508008EE03A69FB6813433B611F4B3A695A601E4A8423D3583B61FB68DA433B6913403B61BC
S32508008F003B685A6880239B02134003D03A69FB6813433B61144984223B698B50124A8023FF
S32508008F20D3583B61FB68DA433B6913403B613B685A6880235B02134003D03A69FB68134362
S32508008F403B61094980223B698B507B6901337B613B681A687B69DA40131E00D0B0E6C04640
S32508008F60C046BD4606B080BD001802400004005000080050000C005080B584B000AF786095
S32508008F800A00BB1C1A807B681B69BA1C1288134004D00F23FB1801221A7003E00F23FB1830
S32508008FA000221A700F23FB181B781800BD4604B080BD80B582B000AF786008001100BB1C35
S32508008FC0021C1A807B1C0A1C1A707B1C1B78002B04D0BB1C1A887B689A6103E0BB1C1A88A8
S32508008FE07B689A62C046BD4602B080BD80B582B000AF78607B68002B01D1012382E07B6855
S3250800900041229B5CDBB2002B07D17B684022002199547B681800FEF785FB7B68412224210A
S3250800902099547B681B681A687B681B6801218A431A607B685A687B681B6834490A401A6131
S325080090407B681B689A687B681B6831490A409A607B68DB68012B08D17B689A687B681B6800
S32508009060802109020A439A6007E07B689A687B681B68842109020A439A607B68DB68022B73
S3250800908004D17B681B68802212015A607B681B685A687B681B681F490A435A607B681B68B5
S325080090A0DA687B681B681A490A40DA607B681A697B685B691A4311007B689B691A027B68B2
S325080090C01B680A43DA607B68D9697B681A6A7B681B680A431A607B681B681A687B681B6871
S325080090E001210A431A607B6800225A647B684122202199547B6800221A637B684222002158
S32508009100995400231800BD4602B080BDFFFFFFF0FF7FFFFF0080000280B582B000AF78604E
S3250800912039607B6841229B5CDBB2202B38D17B6840229B5C012B01D1022332E07B684022B4
S32508009140012199547B684122242199547B681B681A687B681B6801218A431A607B681B685D
S325080091601A687B681B6811490A401A607B681B6819687B681B683A680A431A607B681B68BF
S325080091801A687B681B6801210A431A607B684122202199547B68402200219954002300E026
S325080091A002231800BD4602B080BDC046FFEFFFFF80B584B000AF786039607B6841229B5CBA
S325080091C0DBB2202B39D17B6840229B5C012B01D1022333E07B684022012199547B68412293
S325080091E0242199547B681B681A687B681B6801218A431A607B681B681B68FB60FB68114A76
S325080092001340FB603B681B02FA681343FB607B681B68FA681A607B681B681A687B681B682F
S3250800922001210A431A607B684122202199547B68402200219954002300E002231800BD462D
S3250800924004B080BDFFF0FFFF80B584B000AF78607B68002B01D101233DE07B681B68204A41
S325080092601A607B681B681F4A1A607B681B687A6852685A607B681B687A6892689A60FEF730
S32508009280ADFF0300FB600EE0FEF7A8FF0200FB68D31A312B07D97B681B68DB680722134079
S325080092A001D0032317E07B681B68DB6807221340EAD17B681B681A697B68DB689A4205D012
S325080092C07B681B687A68D2681A6103E07B681B68054A1A6000231800BD4604B080BDC0463C
S325080092E0CCCC000055550000AAAA000080B582B000AF78607B681B68034A1A600023180074
S32508009300BD4602B080BDC046AAAA000080B584B000AF7860194B1B68194A13401900174BEB
S325080093207A680A431A607A6880239B009A421FD1144B1A6813005B009B185B0012491800BA
S32508009340FCF7DEFE03000133FB6008E0FB68002B03D0FB68013BFB6001E0032309E0074B19
S325080093605A698023DB001A408023DB009A42EDD000231800BD4604B080BDC0460070004048
S32508009380FFF9FFFF0000002040420F0080B500AF034B9A68E023DB0113401800BD4680BD5A
S325080093A00010024080B588B000AF78607B68002B01D10123F3E27B681B680122134000D1D3
S325080093C07CE0C34B9B6838221340BB61C04BDB68032213407B61BB69102B02D17B69032B63
S325080093E002D0BB69082B0BD1B94B1A6880239B02134062D07B685B68002B5ED10123CEE23B
S325080094007B685A6880235B029A4207D1B04B1A68AF4B802149020A431A6020E07B685A6816
S32508009420A023DB029A420ED1A94B1A68A84B8021C9020A431A60A64B1A68A54B80214902D8
S325080094400A431A600BE0A24B1A68A14BA1490A401A609F4B1A689E4B9F490A401A607B685F
S325080094605B68002B14D0FEF7B9FE03003B6108E0FEF7B4FE02003B69D31A642B01D9032310
S325080094808DE2934B1A6880239B021340F0D015E0FEF7A4FE03003B6108E0FEF79FFE0200F5
S325080094A03B69D31A642B01D9032378E2884B1A6880239B021340F0D100E0C0467B681B682F
S325080094C00222134000D199E0814B9B6838221340BB617F4BDB68032213407B61BB69102B65
S325080094E002D17B69022B02D0BB69002B35D1784B1A688023DB00134005D07B68DB68002B17
S3250800950001D101234BE2724B5B68744A134019007B685B691A026E4B0A435A60BB69002B9E
S3250800952012D16B4B1B686E4A134019007B681A69674B0A431A60664B1B68DB0A0722134069
S32508009540684ADA40684B1A60684B1B681800FEF7E9FD031E51D0012321E27B68DB68002B21
S3250800956030D05B4B1B685E4A134019007B681A69574B0A431A60564B1A68554B8021490024
S325080095800A431A60FEF72AFE03003B6108E0FEF725FE02003B69D31A022B01D90323FEE19B
S325080095A04B4B1A688023DB001340F0D0484B5B684A4A134019007B685B691A02444B0A43FF
S325080095C05A601BE0424B1A68414B49490A401A60FEF704FE03003B6108E0FEF7FFFD020066
S325080095E03B69D31A022B01D90323D8E1384B1A688023DB001340F0D100E0C0467B681B6803
S325080096000822134047D0324B9B6838221340182B0AD12F4B1B6E022213403CD07B689B69F0
S32508009620002B38D10123BAE17B689B69002B19D0274B1A6E264B01210A431A66FEF7CEFD14
S3250800964003003B6108E0FEF7C9FD02003B69D31A022B01D90323A2E11D4B1B6E022213400F
S32508009660F1D018E01A4B1A6E194B01218A431A66FEF7B4FD03003B6108E0FEF7AFFD020093
S325080096803B69D31A022B01D9032388E1104B1B6E02221340F1D17B681B680422134000D1C8
S325080096A0C6E01F23FB1800221A70094B9B6838221340202B1ED1064BDB6D0222134000D1D6
S325080096C0B6E07B689B68002B00D0B1E0012366E100100240FFFFFEFFFFFFFBFFFF80FFFF47
S325080096E0FFC7FFFF0024F4000000002004000020FFFEFFFFAC4BDA6B80235B05134001D1DD
S32508009700012300E00023002B11D0A74BDA6BA64B802149050A43DA63A34BDA6B80235B0531
S325080097201340FB60FB681F23FB1801221A709F4B1A6880235B0013401AD19C4B1A689B4B11
S32508009740802149000A431A60FEF748FD03003B6108E0FEF743FD02003B69D31A022B01D9BA
S3250800976003231CE1914B1A6880235B001340F0D07B689B68012B06D18B4BDA6D8A4B01214C
S325080097800A43DA651CE07B689B68052B0CD1864BDA6D854B04210A43DA65834BDA6D824BC5
S325080097A001210A43DA650BE07F4BDA6D7E4B01218A43DA657C4BDA6D7B4B04218A43DA65F5
S325080097C07B689B68002B14D0FEF708FD03003B6109E0FEF703FD02003B69D31A744A9342E9
S325080097E001D90323DBE0704BDB6D02221340F0D013E0FEF7F3FC03003B6109E0FEF7EEFC28
S3250800980002003B69D31A6A4A934201D90323C6E0654BDB6D02221340F0D11F23FB181B7860
S32508009820012B05D1604BDA6B5F4B62490A40DA637B68DB69002B00D1B0E05B4B9B68382296
S325080098401340102B00D178E07B68DB69022B53D1554B1A68544B58490A401A60FEF7BEFCF6
S3250800986003003B6108E0FEF7B9FC02003B69D31A022B01D9032392E04B4B1A6880239B041D
S325080098801340F0D1484BDB684C4A134019007B681A6A7B685B6A1A437B689B6A1B021A4300
S325080098A07B68DB6A1A437B681B6B1A433E4B0A43DA603D4B1A683C4B802149040A431A60F9
S325080098C0394BDA68384B802149050A43DA60FEF785FC03003B6108E0FEF780FC02003B69A7
S325080098E0D31A022B01D9032359E02F4B1A6880239B041340F0D051E02B4B1A682A4B2E49A1
S325080099000A401A60FEF76AFC03003B6108E0FEF765FC02003B69D31A022B01D903233EE05F
S32508009920214B1A6880239B041340F0D11E4BDA681D4B23490A40DA6030E07B68DB69012B6F
S3250800994001D101232BE0184BDB687B617B6903221A407B681B6A9A421ED17B6970221A4010
S325080099607B685B6A9A4217D17A69FE23DB011A407B689B6A1B029A420ED17A69F8239B03D7
S325080099801A407B68DB6A9A4206D17B695B0F5A077B681B6B9A4201D0012300E00023180080
S325080099A0BD4608B080BDC046001002400070004088130000FFFFFFEFFFFFFFFE8C80C11F2B
S325080099C0FCFFFEEF80B584B000AF786039607B68002B01D10123E9E0764B1B68072213407B
S325080099E03A689A421ED9734B1B68072293431900704B3A680A431A60FEF7F0FB0300FB6029
S32508009A0009E0FEF7EBFB0200FB68D31A6A4A934201D90323CAE0674B1B68072213403A689C
S32508009A209A42EED17B681B680222134015D07B681B680422134006D0604B9A685F4BE021AE
S32508009A40C9010A439A605D4B9B685D4A134019007B689A68594B0A439A607B681B680122D0
S32508009A60134057D07B685B68012B07D1534B1A6880239B0213402BD1012397E07B685B68C4
S32508009A80022B07D14D4B1A6880239B0413401FD101238BE07B685B68002B07D1474B1A68C8
S32508009AA08023DB00134013D101237FE07B685B68032B06D1414B1B6E0222134008D101232C
S32508009AC074E03E4BDB6D0222134001D101236DE03A4B9B680722934319007B685A68374BD2
S32508009AE00A439A60FEF77AFB0300FB6009E0FEF775FB0200FB68D31A2F4A934201D903235B
S32508009B0054E02E4B9B6838221A407B685B68DB009A42ECD1274B1B68072213403A689A42CA
S32508009B201ED2244B1B68072293431900214B3A680A431A60FEF752FB0300FB6009E0FEF7CA
S32508009B404DFB0200FB68D31A1B4A934201D903232CE0184B1B68072213403A689A42EED178
S32508009B607B681B680422134009D0144B9B68154A134019007B68DA68104B0A439A6000F03B
S32508009B8029F801000D4B9B681B0A0F221A400E4B9200D3581F2213400A00DA400B4B1A60EC
S32508009BA00B4B1B681800FEF7BDFA03001800BD4604B080BD0020024088130000001002409C
S32508009BC0FFF0FFFFFF8FFFFFC8BC0008000000200400002080B586B000AF3C4B9B68382230
S32508009BE013400FD1394B1B68DB0A0722134001229A4013003B6039683548FCF781FA030082
S32508009C003B615DE0314B9B6838221340082B02D1304B3B6154E02D4B9B6838221340102B7D
S32508009C2038D12A4BDB6803221340FB60274BDB681B09072213400133BB60FB68032B0DD16F
S32508009C40B9682448FCF75CFA030019001F4BDB681B0A7F2213404B437B610DE0B9681C4862
S32508009C60FCF74EFA03001900184BDB681B0A7F2213404B437B61C046144BDB685B0F07221B
S32508009C80134001337B6079687869FCF739FA03003B6115E00D4B9B6838221340202B03D1B1
S32508009CA080231B023B610BE0084B9B6838221340182B03D1FA23DB013B6101E000233B6100
S32508009CC03B691800BD4606B080BDC046001002400024F40000127A0080B500AF024B1B6814
S32508009CE01800BD4680BDC04600000020B0B500AFFFF7F2FF0400FFF749FB03001A0B054B27
S32508009D009200D3581F221340DC4023001800BD46B0BDC04608BD000880B586B000AF786058
S32508009D201323FB1800221A701223FB1800221A707B681A6880239B02134000D1A3E01120AF
S32508009D403B1800221A70864BDA6B80235B05134010D1834BDA6B824B802149050A43DA6350
S32508009D607F4BDA6B80235B051340BB60BB683B1801221A707B4B1A687A4B802149000A43EE
S32508009D801A60FEF72BFA0300FB600BE0FEF726FA0200FB68D31A022B04D91323FB180322F9
S32508009DA01A7005E06F4B1A6880235B001340EDD01323FB181B78002B54D1694BDA6DC023D2
S32508009DC09B0013407B617B69002B19D07B689B697A699A4214D0624BDB6D634A13407B6158
S32508009DE05F4BDA6D5E4B802149020A43DA655C4BDA6D5B4B5D490A40DA65594B7A69DA65BA
S32508009E007B690122134016D0FEF7E8F90300FB600CE0FEF7E3F90200FB68D31A544A93423E
S32508009E2004D91323FB1803221A7004E04C4BDB6D02221340EDD01323FB181B78002B0AD166
S32508009E40474BDB6D484A134019007B689A69444B0A43DA650CE01223FB181322BA18127856
S32508009E601A7005E01223FB181322BA1812781A701123FB181B78012B05D1394BDA6B384BDA
S32508009E803C490A40DA637B681B680122134009D0334B5B6D0322934319007B685A68304B79
S32508009EA00A435A657B681B680222134009D02C4B5B6D0C22934319007B689A68284B0A43D1
S32508009EC05A657B681B682022134009D0244B5B6D294A134019007B68DA68214B0A435A652E
S32508009EE07B681A688023DB01134015D01C4B5B6D9B0099087B685A69194B0A435A657B68D4
S32508009F005A698023DB059A4206D1154BDA68144B802149020A43DA607B681A6880231B01A2
S32508009F20134016D00E4B5B6D144A134019007B681A690B4B0A435A657B681A698023DB0142
S32508009F409A4206D1064BDA68054B802149020A43DA601223FB181B781800BD4606B080BD01
S32508009F600010024000700040FFFCFFFFFFFFFEFF88130000FFFFFFEFFFCFFFFFFF3FFFFF4E
S32508009F8080B582B000AF78607B68002B01D101234AE07B683D229B5CDBB2002B07D17B68EB
S32508009FA03C22002199547B681800FDF71DFC7B683D22022199547B681A687B680433190035
S32508009FC0100000F095F97B684822012199547B683E22012199547B683F22012199547B6801
S32508009FE04022012199547B684122012199547B684222012199547B684322012199547B68FD
S3250800A0004422012199547B684522012199547B684622012199547B684722012199547B68CC
S3250800A0203D220121995400231800BD4602B080BD80B582B000AF78607B68002B01D1012385
S3250800A0404AE07B683D229B5CDBB2002B07D17B683C22002199547B68180000F041F87B68A9
S3250800A0603D22022199547B681A687B6804331900100000F03DF97B684822012199547B6856
S3250800A0803E22012199547B683F22012199547B684022012199547B684122012199547B6864
S3250800A0A04222012199547B684322012199547B684422012199547B684522012199547B6834
S3250800A0C04622012199547B684722012199547B683D220121995400231800BD4602B080BD22
S3250800A0E080B582B000AF7860C046BD4602B080BD80B586B000AFF860B9607A601723FB18BA
S3250800A10000221A70FB683C229B5C012B01D10223E5E0FB683C22012199547B68142B00D91A
S3250800A120D1E07B689A00704BD3181B689F46FB681B68BA681100180000F050F9FB681B6885
S3250800A1409A69FB681B6808210A439A61FB681B689A69FB681B6804218A439A61FB681B68F5
S3250800A1609969BB681A69FB681B680A439A61AFE0FB681B68BA681100180000F0B9F9FB6836
S3250800A1801B689A69FB681B68802109010A439A61FB681B689A69FB681B6854490A409A61A1
S3250800A1A0FB681B689969BB681B691A02FB681B680A439A618CE0FB681B68BA68110018001B
S3250800A1C000F01AFAFB681B68DA69FB681B6808210A43DA61FB681B68DA69FB681B68042179
S3250800A1E08A43DA61FB681B68D969BB681A69FB681B680A43DA616BE0FB681B68BA681100A9
S3250800A200180000F081FAFB681B68DA69FB681B68802109010A43DA61FB681B68DA69FB68DF
S3250800A2201B6832490A40DA61FB681B68D969BB681B691A02FB681B680A43DA6148E0FB68A9
S3250800A2401B68BA681100180000F0C8FAFB681B685A6DFB681B6808210A435A65FB681B68C2
S3250800A2605A6DFB681B6804218A435A65FB681B68596DBB681A69FB681B680A435A6527E027
S3250800A280FB681B68BA681100180000F007FBFB681B685A6DFB681B68802109010A435A6543
S3250800A2A0FB681B685A6DFB681B6810490A405A65FB681B68596DBB681B691A02FB681B6846
S3250800A2C00A435A6504E01723FB1801221A70C046FB683C22002199541723FB181B781800B9
S3250800A2E0BD4606B080BDC04628BD0008FFFBFFFF80B584B000AF786039607B681B68FB6025
S3250800A3007B682F4A934203D07B682E4A934208D1FB6870229343FB603B685B68FA681343DE
S3250800A320FB607B68264A934213D07B68254A93420FD07B68244A93420BD07B68234A93427D
S3250800A34007D07B68224A934203D07B68214A934208D1FB68204A1340FB603B68DB68FA6862
S3250800A3601343FB60FB68802293431A003B685B691343FB607B68FA681A603B689A687B68CA
S3250800A380DA623B681A687B689A627B680C4A93420BD07B680D4A934207D07B680C4A934292
S3250800A3A003D07B680B4A934203D13B681A697B681A637B6801225A61C046BD4604B080BD9A
S3250800A3C0002C01400004004000200040004001400044014000480140FFFCFFFF80B586B06B
S3250800A3E000AF786039607B681B6A012293431A007B681A627B681B6A7B617B685B683B61CF
S3250800A4007B689B69FB60FB68324A1340FB60FB6803229343FB603B681B68FA681343FB606D
S3250800A4207B69022293437B613B689B687A6913437B617B68284A93420BD07B68274A93426B
S3250800A44007D07B68264A934203D07B68254A93420CD17B69082293437B613B68DB687A698F
S3250800A46013437B617B69042293437B617B681A4A93420BD07B68194A934207D07B68184AB2
S3250800A480934203D07B68174A934211D13B69164A13403B613B69154A13403B613B685B69BF
S3250800A4A03A6913433B613B689B693A6913433B617B683A695A607B68FA689A613B685A68D8
S3250800A4C07B685A637B687A691A62C046BD4606B080BDC0468FFFFEFF002C01400040014011
S3250800A4E00044014000480140FFFEFFFFFFFDFFFF80B586B000AF786039607B681B6A102226
S3250800A50093431A007B681A627B681B6A7B617B685B683B617B689B69FB60FB682E4A1340E8
S3250800A520FB60FB682D4A1340FB603B681B681B02FA681343FB607B69202293437B613B6859
S3250800A5409B681B017A6913437B617B68244A93420DD17B69802293437B613B68DB681B017B
S3250800A5607A6913437B617B69402293437B617B681B4A93420BD07B681A4A934207D07B68F2
S3250800A580194A934203D07B68184A934213D13B69174A13403B613B69164A13403B613B681A
S3250800A5A05B699B003A6913433B613B689B699B003A6913433B617B683A695A607B68FA683D
S3250800A5C09A613B685A687B689A637B687A691A62C046BD4606B080BDFF8FFFFEFFFCFFFF6B
S3250800A5E0002C0140004001400044014000480140FFFBFFFFFFF7FFFF80B586B000AF786073
S3250800A60039607B681B6A354A1A407B681A627B681B6A7B617B685B683B617B68DB69FB60EB
S3250800A620FB682F4A1340FB60FB6803229343FB603B681B68FA681343FB607B69294A1340E6
S3250800A6407B613B689B681B027A6913437B617B68254A93420DD17B69244A13407B613B680F
S3250800A660DB681B027A6913437B617B69204A13407B617B681C4A93420BD07B681D4A9342C2
S3250800A68007D07B681C4A934203D07B681B4A934213D13B691A4A13403B613B69194A134092
S3250800A6A03B613B685B691B013A6913433B613B689B691B013A6913433B617B683A695A6040
S3250800A6C07B68FA68DA613B685A687B68DA637B687A691A62C046BD4606B080BDFFFEFFFF2E
S3250800A6E08FFFFEFFFFFDFFFF002C0140FFF7FFFFFFFBFFFF004001400044014000480140DF
S3250800A700FFEFFFFFFFDFFFFF80B586B000AF786039607B681B6A284A1A407B681A627B6862
S3250800A7201B6A3B617B685B687B617B68DB69FB60FB68224A1340FB60FB68214A1340FB60ED
S3250800A7403B681B681B02FA681343FB603B691D4A13403B613B689B681B033A6913433B6142
S3250800A7607B68194A93420BD07B68184A934207D07B68174A934203D07B68164A934209D106
S3250800A7807B69154A13407B613B685B699B017A6913437B617B687A695A607B68FA68DA6121
S3250800A7A03B685A687B681A647B683A691A62C046BD4606B080BDC046FFEFFFFFFF8FFFFE4A
S3250800A7C0FFFCFFFFFFDFFFFF002C0140004001400044014000480140FFBFFFFF80B586B073
S3250800A7E000AF786039607B681B6A254A1A407B681A627B681B6A3B617B685B687B617B6832
S3250800A8005B6DFB60FB681F4A1340FB603B681B68FA681343FB603B691B4A13403B613B68B9
S3250800A8209B681B043A6913433B617B68174A93420BD07B68164A934207D07B68154A934259
S3250800A84003D07B68144A934209D17B690C4A13407B613B685B691B027A6913437B617B6842
S3250800A8607A695A607B68FA685A653B685A687B689A657B683A691A62C046BD4606B080BDE4
S3250800A880FFFFFEFF8FFFFEFFFFFFFDFF002C014000400140004401400048014080B586B0C3
S3250800A8A000AF786039607B681B6A264A1A407B681A627B681B6A3B617B685B687B617B6870
S3250800A8C05B6DFB60FB68204A1340FB603B681B681B02FA681343FB603B691C4A13403B617D
S3250800A8E03B689B681B053A6913433B617B68184A93420BD07B68174A934207D07B68164AC7
S3250800A900934203D07B68154A934209D17B69144A13407B613B685B699B027A6913437B6106
S3250800A9207B687A695A607B68FA685A653B685A687B68DA657B683A691A62C046BD4606B03D
S3250800A94080BDC046FFFFEFFFFF8FFFFEFFFFDFFF002C014000400140004401400048014057
S3250800A960FFFFFBFF80B588B000AFF860B960BB1D1A80FB6888229B58202B00D079E0BB683B
S3250800A980002B03D0BB1D1B88002B01D1012371E0FB689A6880235B019A4209D1FB681B69BD
S3250800A9A0002B05D1BB680122134001D0012361E0FB68BA681A65FB68BA1D542112885A52C0
S3250800A9C0FB68BA1D562112885A52FB68902200219950FB68882221219950FB68DB6F002B43
S3250800A9E028D0FB68DB6F254ADA62FB68DB6F244A1A63FB68DB6F234A5A63FB68DB6F0022BB
S3250800AA009A63FB68D86FFB681B6D1900FB681B6828331A00BB1D1B88FDF776FD031E09D046
S3250800AA20FB68902210219950FB6888222021995001231FE0FB681B6840221A62EFF3108346
S3250800AA403B613B69FB6101237B617B6983F31088C046FB681B689A68FB681B6880210A4398
S3250800AA609A60FB69BB61BB6983F31088C046002300E002231800BD4608B080BD7DB60008A3
S3250800AA8015B70008A7B8000880B588B000AFF860B960BB1D1A80FB688C229B58202B45D109
S3250800AAA0BB68002B03D0BB1D1B88002B01D101233DE0FB689A6880235B019A4209D1FB6831
S3250800AAC01B69002B05D1BB680122134001D001232DE0FB680022DA66FB681B685A68802338
S3250800AAE01B04134019D0EFF310833B613B69FB6101237B617B6983F31088C046FB681B68FE
S3250800AB001A68FB681B688021C9040A431A60FB69BB61BB6983F31088C046BB1D1A88B96837
S3250800AB20FB68180000F05EFC030000E002231800BD4608B080BD000080B592B000AF78602C
S3250800AB40EFF310833B623B6A7B6401237B627B6A83F31088C0467B681B681A687B681B6809
S3250800AB604D490A401A607B6CBB62BB6A83F31088C046EFF31083FB62FB6A3B6401233B6398
S3250800AB803B6B83F31088C0467B681B689A687B681B6842490A409A603B6C7B637B6B83F36F
S3250800ABA01088C0467B68DB6E012B18D1EFF310837B617B69FB630123BB61BB6983F31088A3
S3250800ABC0C0467B681B681A687B681B6810218A431A60FB6BFB61FB6983F31088C0467B687E
S3250800ABE01B689B6840221340402B39D1EFF31083BB60BB68BB630123FB60FB6883F31088D6
S3250800AC00C0467B681B689A687B681B6840218A439A60BB6B3B613B6983F31088C0467B68CD
S3250800AC2080229B58002B1BD07B6880229B5800229A637B6880229B581800FDF7EBFC031E38
S3250800AC400ED07B6880229B581800FDF7F7FD0300202B05D17B68902210219950032317E0A0
S3250800AC607B685E22002199527B681B680F221A627B681B689A697B681B6808210A439A6104
S3250800AC807B688C22202199507B680022DA6600231800BD4612B080BDDFFEFFFFFEFFFFEFA3
S3250800ACA080B582B000AF7860C046BD4602B080BD80B582B000AF7860C046BD4602B080BDBA
S3250800ACC080B582B000AF7860C046BD4602B080BD80B582B000AF7860C046BD4602B080BD9A
S3250800ACE080B582B000AF7860C046BD4602B080BD80B582B000AF78600A00BB1C1A80C046F1
S3250800AD00BD4602B080BD000080B588B000AF78601A23FB1800221A707B689A687B681B69F7
S3250800AD201A437B685B691A437B68DB691343FB617B681B681B68BC4A134019007B681B680A
S3250800AD40FA690A431A607B681B685B68B74A134019007B68DA687B681B680A435A607B68B0
S3250800AD609B69FB617B681B6AFA691343FB617B681B689B68AE4A134019007B681B68FA6952
S3250800AD800A439A607B681B68DB6A0F22934319007B685A6A7B681B680A43DA627B681B6897
S3250800ADA0A44A934227D1A44B5B6D03221340032B17D01BD8022B0AD018D8002B02D0012B73
S3250800ADC00AD013E01B23FB1800221A7058E01B23FB1802221A7053E01B23FB1804221A7030
S3250800ADE04EE01B23FB1808221A7049E01B23FB1810221A7044E07B681B68904A934227D1AB
S3250800AE008D4B5B6D0C2213400C2B17D01BD8082B0AD018D8002B02D0042B0AD013E01B23BE
S3250800AE20FB1800221A702BE01B23FB1802221A7026E01B23FB1804221A7021E01B23FB18E2
S3250800AE4008221A701CE01B23FB1810221A7017E07B681B687A4A934204D11B23FB180022E9
S3250800AE601A700DE07B681B68764A934204D11B23FB1800221A7003E01B23FB1810221A7090
S3250800AE807B68DA6980231B029A4200D065E01B23FB181B78082B15D018DC042B0DD015DCE0
S3250800AEA0002B02D0022B05D010E0FEF71FFF03007B6112E0644B7B610FE0FEF78BFE0300B6
S3250800AEC07B610AE080231B027B6106E000237B611A23FB1801221A70C0467B69002B00D13A
S3250800AEE08DE07B685A6A594B5200D35A19007869FBF706F903005A007B685B685B08D218D2
S3250800AF007B685B6819001000FBF7FAF803003B613B690F2B1CD93A6980235B029A4217D296
S3250800AF203B699AB20E203B180F218A431A803B695B089BB20722134099B23B183A181288A1
S3250800AF400A431A807B681B683A181288DA6056E01A23FB1801221A7051E01B23FB181B7828
S3250800AF60082B15D018DC042B0DD015DC002B02D0022B05D010E0FEF7B9FE03007B6112E04E
S3250800AF80314B7B610FE0FEF725FE03007B610AE080231B027B6106E000237B611A23FB18AA
S3250800AFA001221A70C0467B69002B28D07B685A6A264B5200D35A19007869FBF7A1F80300AA
S3250800AFC01A007B685B685B08D2187B685B6819001000FBF795F803003B613B690F2B0AD9A8
S3250800AFE03A6980235B029A4205D23B699AB27B681B68DA6003E01A23FB1801221A707B689A
S3250800B0006A22012199527B686822012199527B6800225A677B6800229A671A23FB181B7860
S3250800B0201800BD4608B080BDF369FFCFFFCFFFFFFFF4FF11003801400010024000440040AA
S3250800B04000480040004C00400024F4007CBD000880B582B000AF78607B689B6A0122134029
S3250800B0600BD07B681B685B684A4A134019007B68DA6A7B681B680A435A607B689B6A02221E
S3250800B08013400BD07B681B685B68434A134019007B681A6B7B681B680A435A607B689B6A95
S3250800B0A0042213400BD07B681B685B683B4A134019007B685A6B7B681B680A435A607B681C
S3250800B0C09B6A082213400BD07B681B685B68344A134019007B689A6B7B681B680A435A609D
S3250800B0E07B689B6A102213400BD07B681B689B682C4A134019007B68DA6B7B681B680A43D4
S3250800B1009A607B689B6A202213400BD07B681B689B68254A134019007B681A6C7B681B68BC
S3250800B1200A439A607B689B6A402213401DD07B681B685B681D4A134019007B685A6C7B68A8
S3250800B1401B680A435A607B685A6C80235B039A420BD17B681B685B68154A134019007B681E
S3250800B1609A6C7B681B680A435A607B689B6A802213400BD07B681B685B680E4A13401900A9
S3250800B1807B68DA6C7B681B680A435A60C046BD4602B080BDFFFFFDFFFFFFFEFFFFFFFBFF26
S3250800B1A0FF7FFFFFFFEFFFFFFFDFFFFFFFFFEFFFFFFF9FFFFFFFF7FF80B586B002AF7860CD
S3250800B1C07B68902200219950FDF708F80300FB607B681B681B6808221340082B0CD1FB6897
S3250800B1E08022910378681A4A0092002200F032F8031E01D0032326E07B681B681B680422CC
S3250800B2001340042B0CD1FB688022D1037868104A0092002200F01EF8031E01D0032312E0EA
S3250800B2207B688822202199507B688C22202199507B680022DA667B6800221A677B6884223A
S3250800B2400021995400231800BD4604B080BDC046FFFFFF0180B594B000AFF860B9603B606B
S3250800B260FB1D1A70A7E0BB6D013300D1A3E0FCF7B5FF02003B68D31ABA6D9A4202D3BB6DAE
S3250800B280002B3FD1EFF31083BB62BB6A7B640123FB62FB6A83F31088C046FB681B681A686D
S3250800B2A0FB681B684E490A401A607B6C3B633B6B83F31088C046EFF310837B637B6B3B6428
S3250800B2C00123BB63BB6B83F31088C046FB681B689A68FB681B6801218A439A603B6CFB6328
S3250800B2E0FB6B83F31088C046FB68882220219950FB688C2220219950FB688422002199543D
S3250800B300032369E0FB681B681B680422134052D0FB681B68DA6980231B011A4080231B01AB
S3250800B3209A4248D1FB681B68802212011A62EFF310833B613B69FB6401237B617B6983F385
S3250800B3401088C046FB681B681A68FB681B6824490A401A60FB6CBB61BB6983F31088C04607
S3250800B360EFF31083FB61FB69BB6401233B623B6A83F31088C046FB681B689A68FB681B6823
S3250800B38001218A439A60BB6C7B627B6A83F31088C046FB68882220219950FB688C22202130
S3250800B3A09950FB68902220219950FB68842200219954032310E0FB681B68DB69BA6813408B
S3250800B3C0BA68D31A5A425341DBB21A00FB1D1B789A4200D147E700231800BD4614B080BDB4
S3250800B3E05FFEFFFF80B590B000AFF860B960BB1D1A80FB68BA689A65FB68BA1D5C21128808
S3250800B4005A52FB68902200219950FB688C2222219950FB6880229B58002B2DD0FB688022F1
S3250800B4209B58404ADA62FB6880229B583E4A1A63FB6880229B583D4A5A63FB6880229B5814
S3250800B44000229A63FB6880229858FB681B6824331900FB689B6D1A00BB1D1B88FDF754F834
S3250800B460031E09D0FB68902210219950FB688C2220219950012350E0FB681B69002B19D00B
S3250800B480EFF31083BB62BB6AFB630123FB62FB6A83F31088C046FB681B681A68FB681B6841
S3250800B4A0802149000A431A60FB6B3B633B6B83F31088C046EFF310833B613B69BB63012318
S3250800B4C07B617B6983F31088C046FB681B689A68FB681B6801210A439A60BB6BBB61BB69ED
S3250800B4E083F31088C046EFF31083FB61FB697B6301233B623B6A83F31088C046FB681B68B7
S3250800B5009A68FB681B6840210A439A607B6B7B627B6A83F31088C04600231800BD4610B0D3
S3250800B52080BDC04635B7000865B80008A7B8000880B58AB000AF7860EFF31083BB60BB6891
S3250800B5407B620123FB60FB6883F31088C0467B681B681A687B681B68C0218A431A607B6AAF
S3250800B5603B613B6983F31088C046EFF310837B617B693B620123BB61BB6983F31088C0461F
S3250800B5807B681B689A687B681B6808490A409A603B6AFB61FB6983F31088C0467B68882234
S3250800B5A020219950C046BD460AB080BDFFFF7FFF80B58EB000AF7860EFF310837B617B69A8
S3250800B5C07B630123BB61BB6983F31088C0467B681B681A687B681B6826490A401A607B6BA0
S3250800B5E0FB61FB6983F31088C046EFF310833B623B6A3B6301237B627B6A83F31088C0461A
S3250800B6007B681B689A687B681B681B490A409A603B6BBB62BB6A83F31088C0467B68DB6E7E
S3250800B620012B18D1EFF31083BB60BB68FB620123FB60FB6883F31088C0467B681B681A68F9
S3250800B6407B681B6810218A431A60FB6A3B613B6983F31088C0467B688C22202199507B68A7
S3250800B6600022DA667B6800225A67C046BD460EB080BDC046DFFEFFFFFEFFFFEF80B58CB053
S3250800B68000AF78607B689B6AFB627B681B681B682022134035D1FB6A562200219952EFF381
S3250800B6A01083FB60FB68BB6201233B613B6983F31088C046FB6A1B689A68FB6A1B68802123
S3250800B6C08A439A60BB6A7B617B6983F31088C046EFF31083BB61BB697B620123FB61FB6926
S3250800B6E083F31088C046FB6A1B681A68FB6A1B6840210A431A607B6A3B623B6A83F3108879
S3250800B70004E0FB6A1800FFF7CBFAC046C046BD460CB080BD80B584B000AF78607B689B6A1F
S3250800B720FB60FB681800FFF7C3FAC046BD4604B080BD000080B594B000AF78607B689B6A90
S3250800B740FB647B681B681B68202213406FD1FB6C5E2200219952EFF31083BB61BB69BB64F7
S3250800B7600123FB61FB6983F31088C046FB6C1B681A68FB6C1B683A490A401A60BB6C3B6262
S3250800B7803B6A83F31088C046EFF310837B627B6A7B640123BB62BB6A83F31088C046FB6CEB
S3250800B7A01B689A68FB6C1B6801218A439A607B6CFB62FB6A83F31088C046EFF310833B6353
S3250800B7C03B6B3B6401237B637B6B83F31088C046FB6C1B689A68FB6C1B6840218A439A601C
S3250800B7E03B6CBB63BB6B83F31088C046FB6C8C2220219950FB6CDB6E012B18D1EFF31083C3
S3250800B800FB60FB68FB6301233B613B6983F31088C046FB6C1B681A68FB6C1B6810218A4332
S3250800B8201A60FB6B7B617B6983F31088C046FB6C00221A67FB6CDB6E012B08D1FB6C5C22A2
S3250800B8409A5AFB6C11001800FFF752FA03E0FB6C1800FFF735FAC046BD4614B080BDC0467D
S3250800B860FFFEFFFF80B584B000AF78607B689B6AFB60FB6801221A67FB68DB6E012B0AD1D2
S3250800B880FB685C229B5A5B089AB2FB6811001800FFF72EFA03E0FB681800FFF719FAC046FE
S3250800B8A0BD4604B080BD80B586B000AF78607B689B6A7B617B6988229B583B617B698C2221
S3250800B8C09B58FB607B691B689B6880221340802B0AD13B69212B07D17B69562200219952F7
S3250800B8E07B691800FFF724FE7B691B689B6840221340402B0AD1FB68222B07D17B695E22D5
S3250800B900002199527B691800FFF752FE7B6990229B5810221A437B6990215A507B69180078
S3250800B920FFF7DEF9C046BD4606B080BD80B586B000AFF860B9607A603B60FB68002B01D1D0
S3250800B94001235DE0FB6888229B58002B07D1FB68842200219954FB681800FBF7A3FFFB68EC
S3250800B960882224219950FB681B681A68FB681B6801218A431A60FB681800FFF7C5F90300F8
S3250800B980012B01D101233BE0FB689B6A002B03D0FB681800FFF75CFBFB681B689A68FB68E3
S3250800B9A01B688021C9010A439A60FB681B689B68154A13401900FB681B68BA680A439A6041
S3250800B9C07B685B057B613B681B047A6913437B61FB681B681B680D4A13401900FB681B6851
S3250800B9E07A690A431A60FB681B681A68FB681B6801210A431A60FB681800FFF7DDFB03000C
S3250800BA001800BD4606B080BDFF7FFFFFFFFF00FC80B584B000AF78607B6884229B5C012BF8
S3250800BA2001D1022327E07B688422012199547B688822242199507B681B681B68FB607B6880
S3250800BA401B681A687B681B6801218A431A60FB680B4A1340FB607B6800225A667B681B6873
S3250800BA60FA681A607B688822202199507B6884220021995400231800BD4604B080BDC04659
S3250800BA80FFFFFFDF80B584B000AF786039607B6884229B5C012B01D102232EE07B688422F9
S3250800BAA0012199547B688822242199507B681B681B68FB607B681B681A687B681B680121FA
S3250800BAC08A431A607B681B689B68DB00D9087B681B683A680A439A607B68180000F054F866
S3250800BAE07B681B68FA681A607B688822202199507B6884220021995400231800BD4604B0B6
S3250800BB0080BD000080B584B000AF786039607B6884229B5C012B01D102232FE07B68842216
S3250800BB20012199547B688822242199507B681B681B68FB607B681B681A687B681B68012179
S3250800BB408A431A607B681B689B680E4A134019007B681B683A680A439A607B68180000F029
S3250800BB6013F87B681B68FA681A607B688822202199507B6884220021995400231800BD46DE
S3250800BB8004B080BDFFFFFFF1F0B585B000AF78607B685B6E002B08D17B686A22012199522B
S3250800BBA07B6868220121995243E00F26BB1908221A700E203B1808221A707B681B689B687F
S3250800BBC05B0EDAB20D243B1907210A401A707B681B689B685B0FDAB20C257B1907210A404B
S3250800BBE01A703B181B787A19127814498A5C5A4310007B191B78124AD35C1900FAF70AFBF9
S3250800BC00030099B27B686A229952BB191B783A1912780A498A5C5A4310003B191B78084A0B
S3250800BC20D35C1900FAF7F6FA030099B27B6868229952C046BD4605B0F0BDC04694BD00085D
S3250800BC409CBD000803008218934200D1704719700133F9E770B500260C4C0D4D641BA410AE
S3250800BC60A64209D1002600F019F80A4C0A4D641BA410A64205D170BDB300EB5898470136F6
S3250800BC80EEE7B300EB5898470136F2E7A4BD0008A4BD0008A8BD0008A4BD0008F8B5C04681
S3250800BCA0F8BC08BC9E467047F8B5C046F8BC08BC9E4670470000000001B40248844601BC17
S3250800BCC0604700BF0D000020000000000000000000000000000000000000000000000000C3
S3250800BCE000000000000000000100000002000000030000000400000006000000070000001F
S3250800BD00080000000900000000000000000000000000000000000000010000000200000001
S3250800BD2003000000040000002EA10008C6A20008C6A20008C6A2000870A10008C6A200083E
S3250800BD40C6A20008C6A20008B6A10008C6A20008C6A20008C6A20008F8A10008C6A2000835
S3250800BD60C6A20008C6A200083EA20008C6A20008C6A20008C6A2000880A200080100020070
S3250800BD800400060008000A000C00100020004000800000010101010307010000080402045C
S3250800BDA008010101E1600008B96000080024F400040000000100000080B588B000AF7860EF
S3250800BDC039601F23FB1800221A707B68BB613B687B611A4B5A69194B8021C9020A435A613D
S3250800BDE0EFF31083FB60FB683B6172B6C0460FE07A69BB6912681A607B6904337B61BB6933
S3250800BE000433BB611F217B181A787B1801321A701F23FB181B783F2BEAD9C046074B1A691C
S3250800BE2080235B021340F9D13B69BB60BB6883F31088C046C046BD4608B080BD0020024081
S3250800BE40FFFFFFFFFFFFFFFFFFFFFFFFFFFFFFFFFFFFFFFFFFFFFFFFFFFFFFFFFFFFFFFFF4
S3250800BE60FFFFFFFFFFFFFFFFFFFFFFFFFFFFFFFFFFFFFFFFFFFFFFFFFFFFFFFFFFFFFFFFD4
S3250800BE80FFFFFFFFFFFFFFFFFFFFFFFFFFFFFFFFFFFFFFFFFFFFFFFFFFFFFFFFFFFFFFFFB4
S3250800BEA0FFFFFFFFFFFFFFFFFFFFFFFFFFFFFFFFFFFFFFFFFFFFFFFFFFFFFFFFFFFFFFFF94
S3250800FFE0FFFFFFFFFFFFFFFFFFFFFFFFFFFFFFFFFFFFFFFFFFFFFFFFFFFFFFFFFFFF7E553E
S5030500F7
S70508008091E1
